{
  "contractName": "BetsBase",
  "abi": [
    {
      "constant": true,
      "inputs": [],
      "name": "ceoAddress",
      "outputs": [
        {
          "name": "",
          "type": "address"
        }
      ],
      "payable": false,
      "stateMutability": "view",
      "type": "function"
    },
    {
      "constant": false,
      "inputs": [
        {
          "name": "_newArbiter",
          "type": "address"
        }
      ],
      "name": "setArbiter",
      "outputs": [],
      "payable": false,
      "stateMutability": "nonpayable",
      "type": "function"
    },
    {
      "constant": false,
      "inputs": [
        {
          "name": "_newCEO",
          "type": "address"
        }
      ],
      "name": "setCEO",
      "outputs": [],
      "payable": false,
      "stateMutability": "nonpayable",
      "type": "function"
    },
    {
      "constant": false,
      "inputs": [],
      "name": "unpause",
      "outputs": [],
      "payable": false,
      "stateMutability": "nonpayable",
      "type": "function"
    },
    {
      "constant": true,
      "inputs": [],
      "name": "paused",
      "outputs": [
        {
          "name": "",
          "type": "bool"
        }
      ],
      "payable": false,
      "stateMutability": "view",
      "type": "function"
    },
    {
      "constant": true,
      "inputs": [],
      "name": "arbiterAddress",
      "outputs": [
        {
          "name": "",
          "type": "address"
        }
      ],
      "payable": false,
      "stateMutability": "view",
      "type": "function"
    },
    {
      "constant": false,
      "inputs": [],
      "name": "withdrawBalance",
      "outputs": [],
      "payable": false,
      "stateMutability": "nonpayable",
      "type": "function"
    },
    {
      "constant": false,
      "inputs": [],
      "name": "pause",
      "outputs": [],
      "payable": false,
      "stateMutability": "nonpayable",
      "type": "function"
    },
    {
      "anonymous": false,
      "inputs": [
        {
          "indexed": false,
          "name": "team0",
          "type": "bool"
        },
        {
          "indexed": true,
          "name": "from",
          "type": "address"
        },
        {
          "indexed": false,
          "name": "amount",
          "type": "uint256"
        }
      ],
      "name": "NewBet",
      "type": "event"
    },
    {
      "anonymous": false,
      "inputs": [
        {
          "indexed": false,
          "name": "match_id",
          "type": "bytes32"
        }
      ],
      "name": "MatchCreation",
      "type": "event"
    },
    {
      "anonymous": false,
      "inputs": [
        {
          "indexed": false,
          "name": "match_id",
          "type": "bytes32"
        }
      ],
      "name": "BetsEnd",
      "type": "event"
    },
    {
      "anonymous": false,
      "inputs": [
        {
          "indexed": false,
          "name": "match_id",
          "type": "bytes32"
        },
        {
          "indexed": false,
          "name": "won",
          "type": "uint8"
        }
      ],
      "name": "MatchResolved",
      "type": "event"
    },
    {
      "anonymous": false,
      "inputs": [
        {
          "indexed": false,
          "name": "newContract",
          "type": "address"
        }
      ],
      "name": "ContractUpgrade",
      "type": "event"
    },
    {
      "constant": false,
      "inputs": [
        {
          "name": "_team0Name",
          "type": "string"
        },
        {
          "name": "_team1Name",
          "type": "string"
        }
      ],
      "name": "Create_Match",
      "outputs": [
        {
          "name": "",
          "type": "bytes32"
        }
      ],
      "payable": false,
      "stateMutability": "nonpayable",
      "type": "function"
    },
    {
      "constant": true,
      "inputs": [
        {
          "name": "document",
          "type": "string"
        }
      ],
      "name": "proofFor",
      "outputs": [
        {
          "name": "",
          "type": "bytes32"
        }
      ],
      "payable": false,
      "stateMutability": "view",
      "type": "function"
    },
    {
      "constant": true,
      "inputs": [
        {
          "name": "_index",
          "type": "uint256"
        }
      ],
      "name": "getMatch",
      "outputs": [
        {
          "name": "_team1Name",
          "type": "string"
        },
        {
          "name": "_team0Name",
          "type": "string"
        },
        {
          "name": "_matchId",
          "type": "bytes32"
        },
        {
          "name": "_team0BetSum",
          "type": "uint256"
        },
        {
          "name": "_tem1BetSum",
          "type": "uint256"
        }
      ],
      "payable": false,
      "stateMutability": "view",
      "type": "function"
    },
    {
      "constant": true,
      "inputs": [],
      "name": "getLength",
      "outputs": [
        {
          "name": "",
          "type": "uint256"
        }
      ],
      "payable": false,
      "stateMutability": "view",
      "type": "function"
    },
    {
      "constant": false,
      "inputs": [
        {
          "name": "_matchid",
          "type": "bytes32"
        },
        {
          "name": "team0",
          "type": "bool"
        }
      ],
      "name": "makeBet",
      "outputs": [],
      "payable": true,
      "stateMutability": "payable",
      "type": "function"
    },
    {
      "constant": false,
      "inputs": [
        {
          "name": "_matchid",
          "type": "bytes32"
        }
      ],
      "name": "endBetsInMatch",
      "outputs": [],
      "payable": false,
      "stateMutability": "nonpayable",
      "type": "function"
    },
    {
      "constant": false,
      "inputs": [
        {
          "name": "_matchid",
          "type": "bytes32"
        },
        {
          "name": "_won",
          "type": "uint8"
        }
      ],
      "name": "endMatch",
      "outputs": [],
      "payable": false,
      "stateMutability": "nonpayable",
      "type": "function"
    },
    {
      "constant": false,
      "inputs": [
        {
          "name": "_matchid",
          "type": "bytes32"
        }
      ],
      "name": "withdrawRewards",
      "outputs": [],
      "payable": false,
      "stateMutability": "nonpayable",
      "type": "function"
    }
  ],
  "bytecode": "0x60806040526000600160146101000a81548160ff02191690831515021790555034801561002b57600080fd5b506115c48061003b6000396000f3006080604052600436106100e6576000357c0100000000000000000000000000000000000000000000000000000000900463ffffffff1680630a0f8168146100eb5780631c9c088a1461014257806327d7874c146101855780633d092b3d146101c85780633f4ba83a146102f7578063466ab4531461030e57806350efcdb2146103d957806356022d15146104175780635c975abb146104485780635d799306146104775780635fd8c710146104ce5780637dfb6626146104e55780638456cb59146105165780638ef541e01461052d578063be1c766b1461055d578063f6c1acdf14610588575b600080fd5b3480156100f757600080fd5b5061010061060d565b604051808273ffffffffffffffffffffffffffffffffffffffff1673ffffffffffffffffffffffffffffffffffffffff16815260200191505060405180910390f35b34801561014e57600080fd5b50610183600480360381019080803573ffffffffffffffffffffffffffffffffffffffff169060200190929190505050610632565b005b34801561019157600080fd5b506101c6600480360381019080803573ffffffffffffffffffffffffffffffffffffffff16906020019092919050505061070e565b005b3480156101d457600080fd5b506101f3600480360381019080803590602001909291905050506107ac565b6040518080602001806020018660001916600019168152602001858152602001848152602001838103835288818151815260200191508051906020019080838360005b83811015610251578082015181840152602081019050610236565b50505050905090810190601f16801561027e5780820380516001836020036101000a031916815260200191505b50838103825287818151815260200191508051906020019080838360005b838110156102b757808201518184015260208101905061029c565b50505050905090810190601f1680156102e45780820380516001836020036101000a031916815260200191505b5097505050505050505060405180910390f35b34801561030357600080fd5b5061030c610937565b005b34801561031a57600080fd5b506103bb600480360381019080803590602001908201803590602001908080601f0160208091040260200160405190810160405280939291908181526020018383808284378201915050505050509192919290803590602001908201803590602001908080601f01602080910402602001604051908101604052809392919081815260200183838082843782019150505050505091929192905050506109ca565b60405180826000191660001916815260200191505060405180910390f35b3480156103e557600080fd5b506104156004803603810190808035600019169060200190929190803560ff169060200190929190505050610bdc565b005b34801561042357600080fd5b506104466004803603810190808035600019169060200190929190505050610c9a565b005b34801561045457600080fd5b5061045d610d49565b604051808215151515815260200191505060405180910390f35b34801561048357600080fd5b5061048c610d5c565b604051808273ffffffffffffffffffffffffffffffffffffffff1673ffffffffffffffffffffffffffffffffffffffff16815260200191505060405180910390f35b3480156104da57600080fd5b506104e3610d82565b005b3480156104f157600080fd5b506105146004803603810190808035600019169060200190929190505050610e5e565b005b34801561052257600080fd5b5061052b611149565b005b61055b60048036038101908080356000191690602001909291908035151590602001909291905050506111dc565b005b34801561056957600080fd5b506105726113c0565b6040518082815260200191505060405180910390f35b34801561059457600080fd5b506105ef600480360381019080803590602001908201803590602001908080601f01602080910402602001604051908101604052809392919081815260200183838082843782019150505050505091929192905050506113cd565b60405180826000191660001916815260200191505060405180910390f35b6000809054906101000a900473ffffffffffffffffffffffffffffffffffffffff1681565b600160009054906101000a900473ffffffffffffffffffffffffffffffffffffffff1673ffffffffffffffffffffffffffffffffffffffff163373ffffffffffffffffffffffffffffffffffffffff1614151561068e57600080fd5b600073ffffffffffffffffffffffffffffffffffffffff168173ffffffffffffffffffffffffffffffffffffffff16141515156106ca57600080fd5b80600160006101000a81548173ffffffffffffffffffffffffffffffffffffffff021916908373ffffffffffffffffffffffffffffffffffffffff16021790555050565b6000809054906101000a900473ffffffffffffffffffffffffffffffffffffffff1673ffffffffffffffffffffffffffffffffffffffff163373ffffffffffffffffffffffffffffffffffffffff1614151561076957600080fd5b806000806101000a81548173ffffffffffffffffffffffffffffffffffffffff021916908373ffffffffffffffffffffffffffffffffffffffff16021790555050565b6060806000806000806003878154811015156107c457fe5b906000526020600020906008020190508060020181600101826000015483600301548460040154848054600181600116156101000203166002900480601f0160208091040260200160405190810160405280929190818152602001828054600181600116156101000203166002900480156108805780601f1061085557610100808354040283529160200191610880565b820191906000526020600020905b81548152906001019060200180831161086357829003601f168201915b50505050509450838054600181600116156101000203166002900480601f01602080910402602001604051908101604052809291908181526020018280546001816001161561010002031660029004801561091c5780601f106108f15761010080835404028352916020019161091c565b820191906000526020600020905b8154815290600101906020018083116108ff57829003601f168201915b50505050509350955095509550955095505091939590929450565b6000809054906101000a900473ffffffffffffffffffffffffffffffffffffffff1673ffffffffffffffffffffffffffffffffffffffff163373ffffffffffffffffffffffffffffffffffffffff1614151561099257600080fd5b600160149054906101000a900460ff1615156109ad57600080fd5b6000600160146101000a81548160ff021916908315150217905550565b60006109d46114a2565b600061010060405190810160405280600242604051808281526020019150506020604051808303816000865af1158015610a12573d6000803e3d6000fd5b5050506040513d6020811015610a2757600080fd5b81019080805190602001909291905050506000191681526020018681526020018581526020016000815260200160008152602001600115158152602001600a60ff168152602001600260ff168152509150600160038390806001815401808255809150509060018203906000526020600020906008020160009091929091909150600082015181600001906000191690556020820151816001019080519060200190610ad49291906114f3565b506040820151816002019080519060200190610af19291906114f3565b50606082015181600301556080820151816004015560a08201518160070160006101000a81548160ff02191690831515021790555060c08201518160070160016101000a81548160ff021916908360ff16021790555060e08201518160070160026101000a81548160ff021916908360ff16021790555050500390508060026000846000015160001916600019168152602001908152602001600020819055507f9f88e75efd248809da057a850607202572b49188500b34e438c1884af6b17435826000015160405180826000191660001916815260200191505060405180910390a1505092915050565b600080610be884611478565b9150600382815481101515610bf957fe5b90600052602060002090600802019050600015158160070160009054906101000a900460ff161515141515610c2a57fe5b828160070160026101000a81548160ff021916908360ff1602179055507fea8ea0d25c20e9a805057bc82c595929a741d114709f74e467893892d14ba66d84846040518083600019166000191681526020018260ff1660ff1681526020019250505060405180910390a150505050565b600080610ca683611478565b9150600382815481101515610cb757fe5b90600052602060002090600802019050600115158160070160009054906101000a900460ff161515141515610ce857fe5b60008160070160006101000a81548160ff0219169083151502179055507fcea978e6c38ee40d0faa8e6fcded6f4f353851fd8f6e79314b42835546201b798360405180826000191660001916815260200191505060405180910390a1505050565b600160149054906101000a900460ff1681565b600160009054906101000a900473ffffffffffffffffffffffffffffffffffffffff1681565b6000809054906101000a900473ffffffffffffffffffffffffffffffffffffffff1673ffffffffffffffffffffffffffffffffffffffff163373ffffffffffffffffffffffffffffffffffffffff16141515610ddd57600080fd5b6000809054906101000a900473ffffffffffffffffffffffffffffffffffffffff1673ffffffffffffffffffffffffffffffffffffffff166108fc3073ffffffffffffffffffffffffffffffffffffffff16319081150290604051600060405180830381858888f19350505050158015610e5b573d6000803e3d6000fd5b50565b6000806000610e6c84611478565b9250600383815481101515610e7d57fe5b906000526020600020906008020191506000905060008260070160029054906101000a900460ff1660ff161415610fea5760008260050160003373ffffffffffffffffffffffffffffffffffffffff1673ffffffffffffffffffffffffffffffffffffffff1681526020019081526020016000205414151515610eff57600080fd5b81600401548260050160003373ffffffffffffffffffffffffffffffffffffffff1673ffffffffffffffffffffffffffffffffffffffff16815260200190815260200160002054029050816003015481811515610f5857fe5b04905060008260050160003373ffffffffffffffffffffffffffffffffffffffff1673ffffffffffffffffffffffffffffffffffffffff168152602001908152602001600020819055503373ffffffffffffffffffffffffffffffffffffffff166108fc829081150290604051600060405180830381858888f19350505050158015610fe8573d6000803e3d6000fd5b505b60018260070160029054906101000a900460ff1660ff1614156111435760008260060160003373ffffffffffffffffffffffffffffffffffffffff1673ffffffffffffffffffffffffffffffffffffffff168152602001908152602001600020541415151561105857600080fd5b81600401548260060160003373ffffffffffffffffffffffffffffffffffffffff1673ffffffffffffffffffffffffffffffffffffffff168152602001908152602001600020540290508160040154818115156110b157fe5b04905060008260050160003373ffffffffffffffffffffffffffffffffffffffff1673ffffffffffffffffffffffffffffffffffffffff168152602001908152602001600020819055503373ffffffffffffffffffffffffffffffffffffffff166108fc829081150290604051600060405180830381858888f19350505050158015611141573d6000803e3d6000fd5b505b50505050565b6000809054906101000a900473ffffffffffffffffffffffffffffffffffffffff1673ffffffffffffffffffffffffffffffffffffffff163373ffffffffffffffffffffffffffffffffffffffff161415156111a457600080fd5b600160149054906101000a900460ff161515156111c057600080fd5b60018060146101000a81548160ff021916908315150217905550565b600080600080341115156111ef57600080fd5b6111f885611478565b925060038381548110151561120957fe5b90600052602060002090600802019150600115158260070160009054906101000a900460ff16151514151561123a57fe5b6001151584151514156112d55781600301549050803482011015151561125f57600080fd5b8082600301541015151561126f57fe5b348260050160003373ffffffffffffffffffffffffffffffffffffffff1673ffffffffffffffffffffffffffffffffffffffff1681526020019081526020016000206000828254019250508190555034826003016000828254019250508190555061135f565b8160040154905080348201101515156112ed57600080fd5b808260040154101515156112fd57fe5b348260060160003373ffffffffffffffffffffffffffffffffffffffff1673ffffffffffffffffffffffffffffffffffffffff168152602001908152602001600020600082825401925050819055503482600401600082825401925050819055505b3373ffffffffffffffffffffffffffffffffffffffff167f1b38a56bd7d8dadb187b26b17babdbceae24d5afbb964299b18584c0ac6006e5853460405180831515151581526020018281526020019250505060405180910390a25050505050565b6000600380549050905090565b60006002826040518082805190602001908083835b60208310151561140757805182526020820191506020810190506020830392506113e2565b6001836020036101000a0380198251168184511680821785525050505050509050019150506020604051808303816000865af115801561144b573d6000803e3d6000fd5b5050506040513d602081101561146057600080fd5b81019080805190602001909291905050509050919050565b60008060026000846000191660001916815260200190815260200160002054905080915050919050565b610100604051908101604052806000801916815260200160608152602001606081526020016000815260200160008152602001600015158152602001600060ff168152602001600060ff1681525090565b828054600181600116156101000203166002900490600052602060002090601f016020900481019282601f1061153457805160ff1916838001178555611562565b82800160010185558215611562579182015b82811115611561578251825591602001919060010190611546565b5b50905061156f9190611573565b5090565b61159591905b80821115611591576000816000905550600101611579565b5090565b905600a165627a7a72305820876e56acf82acad3fec99c93ae7a470667e436de8d9977a9c2342502ccbfcb3c0029",
  "source": "pragma solidity ^0.4.18;\n\nimport \"./BetsAccessControl.sol\";\n\ncontract BetsBase is BetsAccessControl{\n    \n    event NewBet(bool team0, address indexed from, uint amount);\n    \n    event MatchCreation(bytes32 match_id);\n\n    event BetsEnd(bytes32 match_id);\n\n    event MatchResolved(bytes32 match_id, uint8 won);\n\n    // The main match struct, every match in bitkup is represented by a copy\n    // of this structure \n    struct Match {\n        //match unique ID\n        bytes32 match_id;\n\n        string team0Name;\n        string team1Name;\n        // array of bet sum on each team\n        uint team0BetSum;\n        uint team1BetSum;\n        // array of bet sum per address on each team\n        mapping (address => uint) betsToTeam0;\n        mapping (address => uint) betsToTeam1;\n        // True if accepts new bets\n        bool state;\n        uint8 TAX;\n        // 1 Team1, 0 Team0, 2 Not Ended\n        uint8 won;\n    \n    }\n\n    mapping (bytes32 => uint256) Matches_Index;\n\n    Match[] matches;\n\n    function Create_Match(string _team0Name, string _team1Name) returns (bytes32) {\n        Match memory _match = Match({\n            match_id: sha256(block.timestamp),\n            team0Name: _team0Name,\n            team1Name: _team1Name,\n            team0BetSum: 0,\n            team1BetSum: 0,\n            state: true,\n            TAX: 10,\n            won: 2\n        });\n        uint256 newMatchIndex = matches.push(_match) - 1;\n        Matches_Index[_match.match_id] = newMatchIndex;\n        MatchCreation(_match.match_id);\n    }\n\n\n    function proofFor(string document) constant returns (bytes32) {\n        return sha256(document);\n    }\n\n    function getMatch(uint _index) constant returns (string _team1Name, string _team0Name, bytes32 _matchId, uint _team0BetSum, uint _tem1BetSum) {\n        Match storage _match = matches[_index];\n        return (_match.team1Name, _match.team0Name, _match.match_id, _match.team0BetSum, _match.team1BetSum);\n    \n    }\n\n    function getLength() public view returns (uint){\n        return (matches.length);\n\n    }\n\n    function getIndexById(bytes32 _matchid) constant internal returns (uint256) {\n        uint256 Match_Index = Matches_Index[_matchid];\n        return (Match_Index);\n\n    }\n\n\n    function makeBet(bytes32 _matchid, bool team0) payable external {\n        require(msg.value > 0);\n        uint256 _match_index = getIndexById(_matchid);\n        Match storage _match = matches[_match_index];\n        assert(_match.state == true);\n        uint prevSum;\n        if (team0 == true) {\n            prevSum = _match.team0BetSum;\n            require((prevSum + msg.value) >= prevSum);\n            assert(_match.team0BetSum >= prevSum);\n            _match.betsToTeam0[msg.sender] += msg.value;\n            _match.team0BetSum += msg.value;\n        }\n        else {\n            prevSum = _match.team1BetSum;\n            require((prevSum + msg.value) >= prevSum);\n            assert(_match.team1BetSum >= prevSum);\n            _match.betsToTeam1[msg.sender] += msg.value;\n            _match.team1BetSum += msg.value;\n        }\n        NewBet(team0, msg.sender, msg.value);\n\n        \n\n    }\n\n\n    // TODO onlyCEO\n    function endBetsInMatch(bytes32 _matchid) external {\n        uint256 _match_index = getIndexById(_matchid);\n        Match storage _match = matches[_match_index];\n        assert(_match.state == true);\n        _match.state = false;\n        BetsEnd(_matchid);\n    }\n    \n    // TODO onlyCEO\n    function endMatch(bytes32 _matchid, uint8 _won) external {\n        uint256 _match_index = getIndexById(_matchid);\n        Match storage _match = matches[_match_index];\n        assert(_match.state == false);\n        _match.won = _won;\n        MatchResolved(_matchid, _won);\n    }\n    \n//TODO make TAX\n    function withdrawRewards(bytes32 _matchid) external {\n        uint256 _match_index = getIndexById(_matchid);\n        Match storage _match = matches[_match_index];\n        uint x = 0;\n        if (_match.won == 0){\n            require(_match.betsToTeam0[msg.sender] != 0);\n            x = _match.betsToTeam0[msg.sender] * _match.team1BetSum;\n            x = x / _match.team0BetSum;\n            _match.betsToTeam0[msg.sender] = 0;\n            msg.sender.transfer(x);\n        }\n        if (_match.won == 1) {\n            require(_match.betsToTeam1[msg.sender] != 0);\n            x = _match.betsToTeam1[msg.sender] * _match.team1BetSum;\n            x = x / _match.team1BetSum;\n            _match.betsToTeam0[msg.sender] = 0;\n            msg.sender.transfer(x);\n        }\n    }\n\n\n}\n\n\n",
  "sourcePath": "/Users/ferraz/trash/bitkup/bets/contracts/BetsBase.sol",
  "compiler": {
    "name": "solc",
    "version": "0.4.24+commit.e67f0147.Emscripten.clang"
  },
  "schemaVersion": "2.0.0",
  "updatedAt": "2018-06-02T21:10:35.048Z"
}