{
  "contractName": "BetsBase",
  "abi": [
    {
      "anonymous": false,
      "inputs": [
        {
          "indexed": false,
          "name": "match_id",
          "type": "uint256"
        }
      ],
      "name": "MatchCreation",
      "type": "event"
    },
    {
      "anonymous": false,
      "inputs": [
        {
          "indexed": false,
          "name": "match_id",
          "type": "uint256"
        },
        {
          "indexed": true,
          "name": "from",
          "type": "address"
        },
        {
          "indexed": false,
          "name": "forTeam",
          "type": "bool"
        },
        {
          "indexed": false,
          "name": "amount",
          "type": "uint256"
        }
      ],
      "name": "BetMade",
      "type": "event"
    },
    {
      "anonymous": false,
      "inputs": [
        {
          "indexed": false,
          "name": "match_id",
          "type": "uint256"
        }
      ],
      "name": "MatchEnd",
      "type": "event"
    },
    {
      "constant": false,
      "inputs": [
        {
          "name": "_team0Name",
          "type": "string"
        },
        {
          "name": "_team1Name",
          "type": "string"
        }
      ],
      "name": "CreateMatch",
      "outputs": [
        {
          "name": "",
          "type": "bytes32"
        }
      ],
      "payable": false,
      "stateMutability": "nonpayable",
      "type": "function"
    },
    {
      "constant": true,
      "inputs": [
        {
          "name": "document",
          "type": "string"
        }
      ],
      "name": "proofFor",
      "outputs": [
        {
          "name": "",
          "type": "bytes32"
        }
      ],
      "payable": false,
      "stateMutability": "view",
      "type": "function"
    }
  ],
  "bytecode": "0x608060405234801561001057600080fd5b50610498806100206000396000f30060806040526004361061004c576000357c0100000000000000000000000000000000000000000000000000000000900463ffffffff168063cbe5d3db14610051578063f6c1acdf1461011c575b600080fd5b34801561005d57600080fd5b506100fe600480360381019080803590602001908201803590602001908080601f0160208091040260200160405190810160405280939291908181526020018383808284378201915050505050509192919290803590602001908201803590602001908080601f01602080910402602001604051908101604052809392919081815260200183838082843782019150505050505091929192905050506101a1565b60405180826000191660001916815260200191505060405180910390f35b34801561012857600080fd5b50610183600480360381019080803590602001908201803590602001908080601f016020809104026020016040519081016040528093929190818152602001838380828437820191505050505050919291929050505061031c565b60405180826000191660001916815260200191505060405180910390f35b600080600242604051808281526020019150506020604051808303816000865af11580156101d3573d6000803e3d6000fd5b5050506040513d60208110156101e857600080fd5b81019080805190602001909291905050509050836000808360001916600019168152602001908152602001600020600101908051906020019061022c9291906103c7565b50826000808360001916600019168152602001908152602001600020600201908051906020019061025e9291906103c7565b50600080600083600019166000191681526020019081526020016000206003018190555060008060008360001916600019168152602001908152602001600020600401819055506001600080836000191660001916815260200190815260200160002060070160006101000a81548160ff021916908315150217905550600a600080836000191660001916815260200190815260200160002060070160016101000a81548160ff021916908360ff1602179055508091505092915050565b60006002826040518082805190602001908083835b6020831015156103565780518252602082019150602081019050602083039250610331565b6001836020036101000a0380198251168184511680821785525050505050509050019150506020604051808303816000865af115801561039a573d6000803e3d6000fd5b5050506040513d60208110156103af57600080fd5b81019080805190602001909291905050509050919050565b828054600181600116156101000203166002900490600052602060002090601f016020900481019282601f1061040857805160ff1916838001178555610436565b82800160010185558215610436579182015b8281111561043557825182559160200191906001019061041a565b5b5090506104439190610447565b5090565b61046991905b8082111561046557600081600090555060010161044d565b5090565b905600a165627a7a72305820e8587b0b3be1ae57920859d17f733d38d480b09d4b316294a15b64419780e4ff0029",
  "source": "pragma solidity ^0.4.18;\n\n// import \"./BetsAccessControl.sol\";\n\ncontract BetsBase {\n    \n    event MatchCreation(uint256 match_id);\n\n    event BetMade(uint256 match_id, address indexed from, bool forTeam, uint amount);\n\n    event MatchEnd(uint256 match_id);\n\n    // The main match struct, every match in bitkup is represented by a copy\n    // of this structure \n    struct Match {\n        //match unique ID\n        bytes32 match_id;\n\n        string team0Name;\n        string team1Name;\n        // array of bet sum on each team\n        uint team0BetSum;\n        uint team1BetSum;\n        // array of bet sum per address on each team\n        mapping (address => uint) betsToTeam0;\n        mapping (address => uint) betsToTeam1;\n        bool state;\n        uint8 TAX;\n    \n    }\n\n    mapping (bytes32 => Match) Matches;\n\n    function CreateMatch(string _team0Name, string _team1Name) returns (bytes32){\n        bytes32 matchid = sha256(block.timestamp);\n        Matches[matchid].team0Name = _team0Name;\n        Matches[matchid].team1Name = _team1Name;\n        Matches[matchid].team0BetSum = 0;\n        Matches[matchid].team1BetSum = 0;\n        Matches[matchid].state = true;\n        Matches[matchid].TAX = 10;\n        return (matchid);\n    }\n\n\n\n    function proofFor(string document) constant returns (bytes32) {\n        return sha256(document);\n    }\n\n\n\n}\n\n\n",
  "sourcePath": "/Users/ferraz/trash/bitkup/bets/contracts/BetsBase.sol",
  "compiler": {
    "name": "solc",
    "version": "0.4.24+commit.e67f0147.Emscripten.clang"
  },
  "schemaVersion": "2.0.0",
  "updatedAt": "2018-05-31T18:38:14.015Z"
}