{
  "contractName": "BetsBase",
  "abi": [
    {
      "anonymous": false,
      "inputs": [
        {
          "indexed": false,
          "name": "team0",
          "type": "bool"
        },
        {
          "indexed": true,
          "name": "from",
          "type": "address"
        },
        {
          "indexed": false,
          "name": "amount",
          "type": "uint256"
        }
      ],
      "name": "NewBet",
      "type": "event"
    },
    {
      "anonymous": false,
      "inputs": [
        {
          "indexed": false,
          "name": "match_id",
          "type": "uint256"
        }
      ],
      "name": "MatchCreation",
      "type": "event"
    },
    {
      "anonymous": false,
      "inputs": [
        {
          "indexed": false,
          "name": "match_id",
          "type": "uint256"
        }
      ],
      "name": "MatchEnd",
      "type": "event"
    },
    {
      "constant": false,
      "inputs": [
        {
          "name": "_team0Name",
          "type": "string"
        },
        {
          "name": "_team1Name",
          "type": "string"
        }
      ],
      "name": "Create_Match",
      "outputs": [
        {
          "name": "",
          "type": "bytes32"
        }
      ],
      "payable": false,
      "stateMutability": "nonpayable",
      "type": "function"
    },
    {
      "constant": true,
      "inputs": [
        {
          "name": "document",
          "type": "string"
        }
      ],
      "name": "proofFor",
      "outputs": [
        {
          "name": "",
          "type": "bytes32"
        }
      ],
      "payable": false,
      "stateMutability": "view",
      "type": "function"
    },
    {
      "constant": true,
      "inputs": [
        {
          "name": "_index",
          "type": "uint256"
        }
      ],
      "name": "getMatch",
      "outputs": [
        {
          "name": "_team1Name",
          "type": "string"
        },
        {
          "name": "_team0Name",
          "type": "string"
        },
        {
          "name": "_matchId",
          "type": "bytes32"
        },
        {
          "name": "_team0BetSum",
          "type": "uint256"
        },
        {
          "name": "_tem1BetSum",
          "type": "uint256"
        }
      ],
      "payable": false,
      "stateMutability": "view",
      "type": "function"
    },
    {
      "constant": true,
      "inputs": [],
      "name": "getLength",
      "outputs": [
        {
          "name": "",
          "type": "uint256"
        }
      ],
      "payable": false,
      "stateMutability": "view",
      "type": "function"
    },
    {
      "constant": true,
      "inputs": [
        {
          "name": "_matchid",
          "type": "bytes32"
        }
      ],
      "name": "getIndexById",
      "outputs": [
        {
          "name": "",
          "type": "uint256"
        }
      ],
      "payable": false,
      "stateMutability": "view",
      "type": "function"
    },
    {
      "constant": false,
      "inputs": [
        {
          "name": "_matchid",
          "type": "bytes32"
        },
        {
          "name": "team0",
          "type": "bool"
        }
      ],
      "name": "makeBet",
      "outputs": [],
      "payable": true,
      "stateMutability": "payable",
      "type": "function"
    },
    {
      "constant": false,
      "inputs": [
        {
          "name": "_matchid",
          "type": "bytes32"
        }
      ],
      "name": "endMatch",
      "outputs": [],
      "payable": false,
      "stateMutability": "nonpayable",
      "type": "function"
    }
  ],
  "bytecode": "0x608060405234801561001057600080fd5b50610a68806100206000396000f300608060405260043610610083576000357c0100000000000000000000000000000000000000000000000000000000900463ffffffff1680633d092b3d14610088578063466ab453146101b75780638ef541e014610282578063bd99fc5e146102b2578063be1c766b146102e3578063c235b3b91461030e578063f6c1acdf14610353575b600080fd5b34801561009457600080fd5b506100b3600480360381019080803590602001909291905050506103d8565b6040518080602001806020018660001916600019168152602001858152602001848152602001838103835288818151815260200191508051906020019080838360005b838110156101115780820151818401526020810190506100f6565b50505050905090810190601f16801561013e5780820380516001836020036101000a031916815260200191505b50838103825287818151815260200191508051906020019080838360005b8381101561017757808201518184015260208101905061015c565b50505050905090810190601f1680156101a45780820380516001836020036101000a031916815260200191505b5097505050505050505060405180910390f35b3480156101c357600080fd5b50610264600480360381019080803590602001908201803590602001908080601f0160208091040260200160405190810160405280939291908181526020018383808284378201915050505050509192919290803590602001908201803590602001908080601f0160208091040260200160405190810160405280939291908181526020018383808284378201915050505050509192919290505050610563565b60405180826000191660001916815260200191505060405180910390f35b6102b06004803603810190808035600019169060200190929190803515159060200190929190505050610704565b005b3480156102be57600080fd5b506102e1600480360381019080803560001916906020019092919050505061086d565b005b3480156102ef57600080fd5b506102f8610870565b6040518082815260200191505060405180910390f35b34801561031a57600080fd5b5061033d600480360381019080803560001916906020019092919050505061087d565b6040518082815260200191505060405180910390f35b34801561035f57600080fd5b506103ba600480360381019080803590602001908201803590602001908080601f01602080910402602001604051908101604052809392919081815260200183838082843782019150505050505091929192905050506108a6565b60405180826000191660001916815260200191505060405180910390f35b6060806000806000806001878154811015156103f057fe5b906000526020600020906008020190508060020181600101826000015483600301548460040154848054600181600116156101000203166002900480601f0160208091040260200160405190810160405280929190818152602001828054600181600116156101000203166002900480156104ac5780601f10610481576101008083540402835291602001916104ac565b820191906000526020600020905b81548152906001019060200180831161048f57829003601f168201915b50505050509450838054600181600116156101000203166002900480601f0160208091040260200160405190810160405280929190818152602001828054600181600116156101000203166002900480156105485780601f1061051d57610100808354040283529160200191610548565b820191906000526020600020905b81548152906001019060200180831161052b57829003601f168201915b50505050509350955095509550955095505091939590929450565b600061056d610951565b600060e060405190810160405280600242604051808281526020019150506020604051808303816000865af11580156105aa573d6000803e3d6000fd5b5050506040513d60208110156105bf57600080fd5b81019080805190602001909291905050506000191681526020018681526020018581526020016000815260200160008152602001600115158152602001600a60ff1681525091506001808390806001815401808255809150509060018203906000526020600020906008020160009091929091909150600082015181600001906000191690556020820151816001019080519060200190610661929190610997565b50604082015181600201908051906020019061067e929190610997565b50606082015181600301556080820151816004015560a08201518160070160006101000a81548160ff02191690831515021790555060c08201518160070160016101000a81548160ff021916908360ff16021790555050500390508060008084600001516000191660001916815260200190815260200160002081905550505092915050565b6000806000803411151561071757600080fd5b6107208561087d565b925060018381548110151561073157fe5b906000526020600020906008020191506001151584151514156107dc5781600301549050803482011015151561076657600080fd5b8082600301541015151561077657fe5b348260050160003373ffffffffffffffffffffffffffffffffffffffff1673ffffffffffffffffffffffffffffffffffffffff16815260200190815260200160002060008282540192505081905550348260030160008282540192505081905550610866565b8160040154905080348201101515156107f457600080fd5b8082600401541015151561080457fe5b348260060160003373ffffffffffffffffffffffffffffffffffffffff1673ffffffffffffffffffffffffffffffffffffffff168152602001908152602001600020600082825401925050819055503482600401600082825401925050819055505b5050505050565b50565b6000600180549050905090565b600080600080846000191660001916815260200190815260200160002054905080915050919050565b60006002826040518082805190602001908083835b6020831015156108e057805182526020820191506020810190506020830392506108bb565b6001836020036101000a0380198251168184511680821785525050505050509050019150506020604051808303816000865af1158015610924573d6000803e3d6000fd5b5050506040513d602081101561093957600080fd5b81019080805190602001909291905050509050919050565b60e0604051908101604052806000801916815260200160608152602001606081526020016000815260200160008152602001600015158152602001600060ff1681525090565b828054600181600116156101000203166002900490600052602060002090601f016020900481019282601f106109d857805160ff1916838001178555610a06565b82800160010185558215610a06579182015b82811115610a055782518255916020019190600101906109ea565b5b509050610a139190610a17565b5090565b610a3991905b80821115610a35576000816000905550600101610a1d565b5090565b905600a165627a7a72305820f93d5bdd4877cc95d005d108f822ea3db061724222e6317f560070804203b2f20029",
  "source": "pragma solidity ^0.4.18;\n\n// import \"./BetsAccessControl.sol\";\n\ncontract BetsBase {\n    \n    event NewBet(bool team0, address indexed from, uint amount);\n    \n    event MatchCreation(uint256 match_id);\n\n    event MatchEnd(uint256 match_id);\n\n    // The main match struct, every match in bitkup is represented by a copy\n    // of this structure \n    struct Match {\n        //match unique ID\n        bytes32 match_id;\n\n        string team0Name;\n        string team1Name;\n        // array of bet sum on each team\n        uint team0BetSum;\n        uint team1BetSum;\n        // array of bet sum per address on each team\n        mapping (address => uint) betsToTeam0;\n        mapping (address => uint) betsToTeam1;\n        bool state;\n        uint8 TAX;\n    \n    }\n\n    mapping (bytes32 => uint256) Matches_Index;\n\n    Match[] matches;\n\n    function Create_Match(string _team0Name, string _team1Name) returns (bytes32) {\n        Match memory _match = Match({\n            match_id: sha256(block.timestamp),\n            team0Name: _team0Name,\n            team1Name: _team1Name,\n            team0BetSum: 0,\n            team1BetSum: 0,\n            state: true,\n            TAX: 10\n        });\n        uint256 newMatchIndex = matches.push(_match) - 1;\n        Matches_Index[_match.match_id] = newMatchIndex;\n       // MatchCreation(_match.match_id);\n    }\n\n\n    function proofFor(string document) constant returns (bytes32) {\n        return sha256(document);\n    }\n\n    function getMatch(uint _index) constant returns (string _team1Name, string _team0Name, bytes32 _matchId, uint _team0BetSum, uint _tem1BetSum) {\n        Match storage _match = matches[_index];\n        return (_match.team1Name, _match.team0Name, _match.match_id, _match.team0BetSum, _match.team1BetSum);\n    \n    }\n\n    function getLength() public view returns (uint){\n        return (matches.length);\n\n    }\n\n    function getIndexById(bytes32 _matchid) constant returns (uint256) {\n        uint256 Match_Index = Matches_Index[_matchid];\n        return (Match_Index);\n\n    }\n\n\n    function makeBet(bytes32 _matchid, bool team0) payable external {\n        require(msg.value > 0);\n        uint256 _match_index = getIndexById(_matchid);\n        Match storage _match = matches[_match_index];\n        uint prevSum;\n        if (team0 == true) {\n            prevSum = _match.team0BetSum;\n            require((prevSum + msg.value) >= prevSum);\n            assert(_match.team0BetSum >= prevSum);\n            _match.betsToTeam0[msg.sender] += msg.value;\n            _match.team0BetSum += msg.value;\n        }\n        else {\n            prevSum = _match.team1BetSum;\n            require((prevSum + msg.value) >= prevSum);\n            assert(_match.team1BetSum >= prevSum);\n            _match.betsToTeam1[msg.sender] += msg.value;\n            _match.team1BetSum += msg.value;\n        }\n//        NewBet(team0, msg.sender, msg.value);\n\n        \n\n    }\n\n    function endMatch(bytes32 _matchid) external {\n\n    }\n\n\n\n}\n\n\n",
  "sourcePath": "/Users/ferraz/trash/bitkup/bets/contracts/BetsBase.sol",
  "compiler": {
    "name": "solc",
    "version": "0.4.24+commit.e67f0147.Emscripten.clang"
  },
  "schemaVersion": "2.0.0",
  "updatedAt": "2018-05-31T23:59:53.750Z"
}