{
  "contractName": "BetsBase",
  "abi": [
    {
      "anonymous": false,
      "inputs": [
        {
          "indexed": false,
          "name": "match_id",
          "type": "uint256"
        }
      ],
      "name": "MatchCreation",
      "type": "event"
    },
    {
      "anonymous": false,
      "inputs": [
        {
          "indexed": false,
          "name": "match_id",
          "type": "uint256"
        },
        {
          "indexed": true,
          "name": "from",
          "type": "address"
        },
        {
          "indexed": false,
          "name": "forTeam",
          "type": "bool"
        },
        {
          "indexed": false,
          "name": "amount",
          "type": "uint256"
        }
      ],
      "name": "BetMade",
      "type": "event"
    },
    {
      "anonymous": false,
      "inputs": [
        {
          "indexed": false,
          "name": "match_id",
          "type": "uint256"
        }
      ],
      "name": "MatchEnd",
      "type": "event"
    },
    {
      "constant": false,
      "inputs": [
        {
          "name": "_team0Name",
          "type": "string"
        },
        {
          "name": "_team1Name",
          "type": "string"
        }
      ],
      "name": "Create_Match",
      "outputs": [
        {
          "name": "",
          "type": "bytes32"
        }
      ],
      "payable": false,
      "stateMutability": "nonpayable",
      "type": "function"
    },
    {
      "constant": false,
      "inputs": [
        {
          "name": "_team0Name",
          "type": "string"
        },
        {
          "name": "_team1Name",
          "type": "string"
        }
      ],
      "name": "CreateMatch",
      "outputs": [
        {
          "name": "",
          "type": "bytes32"
        }
      ],
      "payable": false,
      "stateMutability": "nonpayable",
      "type": "function"
    },
    {
      "constant": true,
      "inputs": [
        {
          "name": "document",
          "type": "string"
        }
      ],
      "name": "proofFor",
      "outputs": [
        {
          "name": "",
          "type": "bytes32"
        }
      ],
      "payable": false,
      "stateMutability": "view",
      "type": "function"
    },
    {
      "constant": true,
      "inputs": [
        {
          "name": "_index",
          "type": "uint256"
        }
      ],
      "name": "getMatch",
      "outputs": [
        {
          "name": "_team1Name",
          "type": "string"
        },
        {
          "name": "_matchID",
          "type": "bytes32"
        },
        {
          "name": "_team0Name",
          "type": "string"
        }
      ],
      "payable": false,
      "stateMutability": "view",
      "type": "function"
    },
    {
      "constant": true,
      "inputs": [],
      "name": "getLength",
      "outputs": [
        {
          "name": "",
          "type": "uint256"
        }
      ],
      "payable": false,
      "stateMutability": "view",
      "type": "function"
    }
  ],
  "bytecode": "0x608060405234801561001057600080fd5b50610a9b806100206000396000f30060806040526004361061006d576000357c0100000000000000000000000000000000000000000000000000000000900463ffffffff1680633d092b3d14610072578063466ab45314610193578063be1c766b1461025e578063cbe5d3db14610289578063f6c1acdf14610354575b600080fd5b34801561007e57600080fd5b5061009d600480360381019080803590602001909291905050506103d9565b6040518080602001846000191660001916815260200180602001838103835286818151815260200191508051906020019080838360005b838110156100ef5780820151818401526020810190506100d4565b50505050905090810190601f16801561011c5780820380516001836020036101000a031916815260200191505b50838103825284818151815260200191508051906020019080838360005b8381101561015557808201518184015260208101905061013a565b50505050905090810190601f1680156101825780820380516001836020036101000a031916815260200191505b509550505050505060405180910390f35b34801561019f57600080fd5b50610240600480360381019080803590602001908201803590602001908080601f0160208091040260200160405190810160405280939291908181526020018383808284378201915050505050509192919290803590602001908201803590602001908080601f0160208091040260200160405190810160405280939291908181526020018383808284378201915050505050509192919290505050610553565b60405180826000191660001916815260200191505060405180910390f35b34801561026a57600080fd5b506102736106d1565b6040518082815260200191505060405180910390f35b34801561029557600080fd5b50610336600480360381019080803590602001908201803590602001908080601f0160208091040260200160405190810160405280939291908181526020018383808284378201915050505050509192919290803590602001908201803590602001908080601f01602080910402602001604051908101604052809392919081815260200183838082843782019150505050505091929192905050506106de565b60405180826000191660001916815260200191505060405180910390f35b34801561036057600080fd5b506103bb600480360381019080803590602001908201803590602001908080601f0160208091040260200160405190810160405280939291908181526020018383808284378201915050505050509192919290505050610859565b60405180826000191660001916815260200191505060405180910390f35b60606000606060006001858154811015156103f057fe5b9060005260206000209060080201905080600201816000015482600101828054600181600116156101000203166002900480601f0160208091040260200160405190810160405280929190818152602001828054600181600116156101000203166002900480156104a25780601f10610477576101008083540402835291602001916104a2565b820191906000526020600020905b81548152906001019060200180831161048557829003601f168201915b50505050509250808054600181600116156101000203166002900480601f01602080910402602001604051908101604052809291908181526020018280546001816001161561010002031660029004801561053e5780601f106105135761010080835404028352916020019161053e565b820191906000526020600020905b81548152906001019060200180831161052157829003601f168201915b50505050509050935093509350509193909250565b600061055d610904565b600060e060405190810160405280600242604051808281526020019150506020604051808303816000865af115801561059a573d6000803e3d6000fd5b5050506040513d60208110156105af57600080fd5b81019080805190602001909291905050506000191681526020018681526020018581526020016000815260200160018152602001600115158152602001600a60ff168152509150600180839080600181540180825580915050906001820390600052602060002090600802016000909192909190915060008201518160000190600019169055602082015181600101908051906020019061065192919061094a565b50604082015181600201908051906020019061066e92919061094a565b50606082015181600301556080820151816004015560a08201518160070160006101000a81548160ff02191690831515021790555060c08201518160070160016101000a81548160ff021916908360ff1602179055505050039050505092915050565b6000600180549050905090565b600080600242604051808281526020019150506020604051808303816000865af1158015610710573d6000803e3d6000fd5b5050506040513d602081101561072557600080fd5b8101908080519060200190929190505050905083600080836000191660001916815260200190815260200160002060010190805190602001906107699291906109ca565b50826000808360001916600019168152602001908152602001600020600201908051906020019061079b9291906109ca565b50600080600083600019166000191681526020019081526020016000206003018190555060008060008360001916600019168152602001908152602001600020600401819055506001600080836000191660001916815260200190815260200160002060070160006101000a81548160ff021916908315150217905550600a600080836000191660001916815260200190815260200160002060070160016101000a81548160ff021916908360ff1602179055508091505092915050565b60006002826040518082805190602001908083835b602083101515610893578051825260208201915060208101905060208303925061086e565b6001836020036101000a0380198251168184511680821785525050505050509050019150506020604051808303816000865af11580156108d7573d6000803e3d6000fd5b5050506040513d60208110156108ec57600080fd5b81019080805190602001909291905050509050919050565b60e0604051908101604052806000801916815260200160608152602001606081526020016000815260200160008152602001600015158152602001600060ff1681525090565b828054600181600116156101000203166002900490600052602060002090601f016020900481019282601f1061098b57805160ff19168380011785556109b9565b828001600101855582156109b9579182015b828111156109b857825182559160200191906001019061099d565b5b5090506109c69190610a4a565b5090565b828054600181600116156101000203166002900490600052602060002090601f016020900481019282601f10610a0b57805160ff1916838001178555610a39565b82800160010185558215610a39579182015b82811115610a38578251825591602001919060010190610a1d565b5b509050610a469190610a4a565b5090565b610a6c91905b80821115610a68576000816000905550600101610a50565b5090565b905600a165627a7a72305820b7c5fb95aac6bc022fbcb56f6fb185cd62ff50c5450df26f239be401d1f1e9920029",
  "source": "pragma solidity ^0.4.18;\n\n// import \"./BetsAccessControl.sol\";\n\ncontract BetsBase {\n    \n    event MatchCreation(uint256 match_id);\n\n    event BetMade(uint256 match_id, address indexed from, bool forTeam, uint amount);\n\n    event MatchEnd(uint256 match_id);\n\n    // The main match struct, every match in bitkup is represented by a copy\n    // of this structure \n    struct Match {\n        //match unique ID\n        bytes32 match_id;\n\n        string team0Name;\n        string team1Name;\n        // array of bet sum on each team\n        uint team0BetSum;\n        uint team1BetSum;\n        // array of bet sum per address on each team\n        mapping (address => uint) betsToTeam0;\n        mapping (address => uint) betsToTeam1;\n        bool state;\n        uint8 TAX;\n    \n    }\n\n    mapping (bytes32 => Match) Matches;\n\n    Match[] matches;\n\n    function Create_Match(string _team0Name, string _team1Name) returns (bytes32) {\n        Match memory _match = Match({\n            match_id: sha256(block.timestamp),\n            team0Name: _team0Name,\n            team1Name: _team1Name,\n            team0BetSum: 0,\n            team1BetSum: 1,\n            state: true,\n            TAX: 10\n        });\n        uint256 newMatchID = matches.push(_match) - 1;\n    }\n\n\n\n\n    function CreateMatch(string _team0Name, string _team1Name) returns (bytes32){\n        bytes32 matchid = sha256(block.timestamp);\n        Matches[matchid].team0Name = _team0Name;\n        Matches[matchid].team1Name = _team1Name;\n        Matches[matchid].team0BetSum = 0;\n        Matches[matchid].team1BetSum = 0;\n        Matches[matchid].state = true;\n        Matches[matchid].TAX = 10;\n        return (matchid);\n    }\n\n\n\n    function proofFor(string document) constant returns (bytes32) {\n        return sha256(document);\n    }\n\n    function getMatch(uint _index) constant returns (string _team1Name, bytes32 _matchID, string _team0Name) {\n        Match storage _match = matches[_index];\n        return (_match.team1Name, _match.match_id, _match.team0Name);\n    \n    }\n\n    function getLength() public view returns (uint){\n        return (matches.length);\n\n    }\n\n\n\n\n}\n\n\n",
  "sourcePath": "/Users/ferraz/trash/bitkup/bets/contracts/BetsBase.sol",
  "compiler": {
    "name": "solc",
    "version": "0.4.24+commit.e67f0147.Emscripten.clang"
  },
  "schemaVersion": "2.0.0",
  "updatedAt": "2018-05-31T19:56:58.966Z"
}