{
  "contractName": "BetsBase",
  "abi": [
    {
      "anonymous": false,
      "inputs": [
        {
          "indexed": false,
          "name": "team0",
          "type": "bool"
        },
        {
          "indexed": true,
          "name": "from",
          "type": "address"
        },
        {
          "indexed": false,
          "name": "amount",
          "type": "uint256"
        }
      ],
      "name": "NewBet",
      "type": "event"
    },
    {
      "anonymous": false,
      "inputs": [
        {
          "indexed": false,
          "name": "match_id",
          "type": "bytes32"
        }
      ],
      "name": "MatchCreation",
      "type": "event"
    },
    {
      "anonymous": false,
      "inputs": [
        {
          "indexed": false,
          "name": "match_id",
          "type": "bytes32"
        }
      ],
      "name": "BetsEnd",
      "type": "event"
    },
    {
      "anonymous": false,
      "inputs": [
        {
          "indexed": false,
          "name": "match_id",
          "type": "bytes32"
        },
        {
          "indexed": false,
          "name": "won",
          "type": "uint8"
        }
      ],
      "name": "MatchResolved",
      "type": "event"
    },
    {
      "constant": false,
      "inputs": [
        {
          "name": "_team0Name",
          "type": "string"
        },
        {
          "name": "_team1Name",
          "type": "string"
        }
      ],
      "name": "Create_Match",
      "outputs": [
        {
          "name": "",
          "type": "bytes32"
        }
      ],
      "payable": false,
      "stateMutability": "nonpayable",
      "type": "function"
    },
    {
      "constant": true,
      "inputs": [
        {
          "name": "document",
          "type": "string"
        }
      ],
      "name": "proofFor",
      "outputs": [
        {
          "name": "",
          "type": "bytes32"
        }
      ],
      "payable": false,
      "stateMutability": "view",
      "type": "function"
    },
    {
      "constant": true,
      "inputs": [
        {
          "name": "_index",
          "type": "uint256"
        }
      ],
      "name": "getMatch",
      "outputs": [
        {
          "name": "_team1Name",
          "type": "string"
        },
        {
          "name": "_team0Name",
          "type": "string"
        },
        {
          "name": "_matchId",
          "type": "bytes32"
        },
        {
          "name": "_team0BetSum",
          "type": "uint256"
        },
        {
          "name": "_tem1BetSum",
          "type": "uint256"
        }
      ],
      "payable": false,
      "stateMutability": "view",
      "type": "function"
    },
    {
      "constant": true,
      "inputs": [],
      "name": "getLength",
      "outputs": [
        {
          "name": "",
          "type": "uint256"
        }
      ],
      "payable": false,
      "stateMutability": "view",
      "type": "function"
    },
    {
      "constant": false,
      "inputs": [
        {
          "name": "_matchid",
          "type": "bytes32"
        },
        {
          "name": "team0",
          "type": "bool"
        }
      ],
      "name": "makeBet",
      "outputs": [],
      "payable": true,
      "stateMutability": "payable",
      "type": "function"
    },
    {
      "constant": false,
      "inputs": [
        {
          "name": "_matchid",
          "type": "bytes32"
        }
      ],
      "name": "endBetsInMatch",
      "outputs": [],
      "payable": false,
      "stateMutability": "nonpayable",
      "type": "function"
    },
    {
      "constant": false,
      "inputs": [
        {
          "name": "_matchid",
          "type": "bytes32"
        },
        {
          "name": "_won",
          "type": "uint8"
        }
      ],
      "name": "endMatch",
      "outputs": [],
      "payable": false,
      "stateMutability": "nonpayable",
      "type": "function"
    }
  ],
  "bytecode": "0x608060405234801561001057600080fd5b50610cc0806100206000396000f300608060405260043610610083576000357c0100000000000000000000000000000000000000000000000000000000900463ffffffff1680633d092b3d14610088578063466ab453146101b757806350efcdb21461028257806356022d15146102c05780638ef541e0146102f1578063be1c766b14610321578063f6c1acdf1461034c575b600080fd5b34801561009457600080fd5b506100b3600480360381019080803590602001909291905050506103d1565b6040518080602001806020018660001916600019168152602001858152602001848152602001838103835288818151815260200191508051906020019080838360005b838110156101115780820151818401526020810190506100f6565b50505050905090810190601f16801561013e5780820380516001836020036101000a031916815260200191505b50838103825287818151815260200191508051906020019080838360005b8381101561017757808201518184015260208101905061015c565b50505050905090810190601f1680156101a45780820380516001836020036101000a031916815260200191505b5097505050505050505060405180910390f35b3480156101c357600080fd5b50610264600480360381019080803590602001908201803590602001908080601f0160208091040260200160405190810160405280939291908181526020018383808284378201915050505050509192919290803590602001908201803590602001908080601f016020809104026020016040519081016040528093929190818152602001838380828437820191505050505050919291929050505061055c565b60405180826000191660001916815260200191505060405180910390f35b34801561028e57600080fd5b506102be6004803603810190808035600019169060200190929190803560ff16906020019092919050505061076c565b005b3480156102cc57600080fd5b506102ef600480360381019080803560001916906020019092919050505061082a565b005b61031f60048036038101908080356000191690602001909291908035151590602001909291905050506108d9565b005b34801561032d57600080fd5b50610336610abd565b6040518082815260200191505060405180910390f35b34801561035857600080fd5b506103b3600480360381019080803590602001908201803590602001908080601f0160208091040260200160405190810160405280939291908181526020018383808284378201915050505050509192919290505050610aca565b60405180826000191660001916815260200191505060405180910390f35b6060806000806000806001878154811015156103e957fe5b906000526020600020906008020190508060020181600101826000015483600301548460040154848054600181600116156101000203166002900480601f0160208091040260200160405190810160405280929190818152602001828054600181600116156101000203166002900480156104a55780601f1061047a576101008083540402835291602001916104a5565b820191906000526020600020905b81548152906001019060200180831161048857829003601f168201915b50505050509450838054600181600116156101000203166002900480601f0160208091040260200160405190810160405280929190818152602001828054600181600116156101000203166002900480156105415780601f1061051657610100808354040283529160200191610541565b820191906000526020600020905b81548152906001019060200180831161052457829003601f168201915b50505050509350955095509550955095505091939590929450565b6000610566610b9e565b600061010060405190810160405280600242604051808281526020019150506020604051808303816000865af11580156105a4573d6000803e3d6000fd5b5050506040513d60208110156105b957600080fd5b81019080805190602001909291905050506000191681526020018681526020018581526020016000815260200160008152602001600115158152602001600a60ff168152602001600260ff1681525091506001808390806001815401808255809150509060018203906000526020600020906008020160009091929091909150600082015181600001906000191690556020820151816001019080519060200190610665929190610bef565b506040820151816002019080519060200190610682929190610bef565b50606082015181600301556080820151816004015560a08201518160070160006101000a81548160ff02191690831515021790555060c08201518160070160016101000a81548160ff021916908360ff16021790555060e08201518160070160026101000a81548160ff021916908360ff160217905550505003905080600080846000015160001916600019168152602001908152602001600020819055507f9f88e75efd248809da057a850607202572b49188500b34e438c1884af6b17435826000015160405180826000191660001916815260200191505060405180910390a1505092915050565b60008061077884610b75565b915060018281548110151561078957fe5b90600052602060002090600802019050600015158160070160009054906101000a900460ff1615151415156107ba57fe5b828160070160026101000a81548160ff021916908360ff1602179055507fea8ea0d25c20e9a805057bc82c595929a741d114709f74e467893892d14ba66d84846040518083600019166000191681526020018260ff1660ff1681526020019250505060405180910390a150505050565b60008061083683610b75565b915060018281548110151561084757fe5b90600052602060002090600802019050600115158160070160009054906101000a900460ff16151514151561087857fe5b60008160070160006101000a81548160ff0219169083151502179055507fcea978e6c38ee40d0faa8e6fcded6f4f353851fd8f6e79314b42835546201b798360405180826000191660001916815260200191505060405180910390a1505050565b600080600080341115156108ec57600080fd5b6108f585610b75565b925060018381548110151561090657fe5b90600052602060002090600802019150600115158260070160009054906101000a900460ff16151514151561093757fe5b6001151584151514156109d25781600301549050803482011015151561095c57600080fd5b8082600301541015151561096c57fe5b348260050160003373ffffffffffffffffffffffffffffffffffffffff1673ffffffffffffffffffffffffffffffffffffffff16815260200190815260200160002060008282540192505081905550348260030160008282540192505081905550610a5c565b8160040154905080348201101515156109ea57600080fd5b808260040154101515156109fa57fe5b348260060160003373ffffffffffffffffffffffffffffffffffffffff1673ffffffffffffffffffffffffffffffffffffffff168152602001908152602001600020600082825401925050819055503482600401600082825401925050819055505b3373ffffffffffffffffffffffffffffffffffffffff167f1b38a56bd7d8dadb187b26b17babdbceae24d5afbb964299b18584c0ac6006e5853460405180831515151581526020018281526020019250505060405180910390a25050505050565b6000600180549050905090565b60006002826040518082805190602001908083835b602083101515610b045780518252602082019150602081019050602083039250610adf565b6001836020036101000a0380198251168184511680821785525050505050509050019150506020604051808303816000865af1158015610b48573d6000803e3d6000fd5b5050506040513d6020811015610b5d57600080fd5b81019080805190602001909291905050509050919050565b600080600080846000191660001916815260200190815260200160002054905080915050919050565b610100604051908101604052806000801916815260200160608152602001606081526020016000815260200160008152602001600015158152602001600060ff168152602001600060ff1681525090565b828054600181600116156101000203166002900490600052602060002090601f016020900481019282601f10610c3057805160ff1916838001178555610c5e565b82800160010185558215610c5e579182015b82811115610c5d578251825591602001919060010190610c42565b5b509050610c6b9190610c6f565b5090565b610c9191905b80821115610c8d576000816000905550600101610c75565b5090565b905600a165627a7a72305820b879737e07610815f1dba015fa6f8436a7e6499b468d7b3b11564053932361510029",
  "source": "pragma solidity ^0.4.18;\n\n// import \"./BetsAccessControl.sol\";\n\ncontract BetsBase {\n    \n    event NewBet(bool team0, address indexed from, uint amount);\n    \n    event MatchCreation(bytes32 match_id);\n\n    event BetsEnd(bytes32 match_id);\n\n    event MatchResolved(bytes32 match_id, uint8 won);\n\n    // The main match struct, every match in bitkup is represented by a copy\n    // of this structure \n    struct Match {\n        //match unique ID\n        bytes32 match_id;\n\n        string team0Name;\n        string team1Name;\n        // array of bet sum on each team\n        uint team0BetSum;\n        uint team1BetSum;\n        // array of bet sum per address on each team\n        mapping (address => uint) betsToTeam0;\n        mapping (address => uint) betsToTeam1;\n        // True if accepts new bets\n        bool state;\n        uint8 TAX;\n        // 1 Team1, 0 Team0, 2 Not Ended\n        uint8 won;\n    \n    }\n\n    mapping (bytes32 => uint256) Matches_Index;\n\n    Match[] matches;\n\n    function Create_Match(string _team0Name, string _team1Name) returns (bytes32) {\n        Match memory _match = Match({\n            match_id: sha256(block.timestamp),\n            team0Name: _team0Name,\n            team1Name: _team1Name,\n            team0BetSum: 0,\n            team1BetSum: 0,\n            state: true,\n            TAX: 10,\n            won: 2\n        });\n        uint256 newMatchIndex = matches.push(_match) - 1;\n        Matches_Index[_match.match_id] = newMatchIndex;\n        MatchCreation(_match.match_id);\n    }\n\n\n    function proofFor(string document) constant returns (bytes32) {\n        return sha256(document);\n    }\n\n    function getMatch(uint _index) constant returns (string _team1Name, string _team0Name, bytes32 _matchId, uint _team0BetSum, uint _tem1BetSum) {\n        Match storage _match = matches[_index];\n        return (_match.team1Name, _match.team0Name, _match.match_id, _match.team0BetSum, _match.team1BetSum);\n    \n    }\n\n    function getLength() public view returns (uint){\n        return (matches.length);\n\n    }\n\n    function getIndexById(bytes32 _matchid) constant internal returns (uint256) {\n        uint256 Match_Index = Matches_Index[_matchid];\n        return (Match_Index);\n\n    }\n\n\n    function makeBet(bytes32 _matchid, bool team0) payable external {\n        require(msg.value > 0);\n        uint256 _match_index = getIndexById(_matchid);\n        Match storage _match = matches[_match_index];\n        assert(_match.state == true);\n        uint prevSum;\n        if (team0 == true) {\n            prevSum = _match.team0BetSum;\n            require((prevSum + msg.value) >= prevSum);\n            assert(_match.team0BetSum >= prevSum);\n            _match.betsToTeam0[msg.sender] += msg.value;\n            _match.team0BetSum += msg.value;\n        }\n        else {\n            prevSum = _match.team1BetSum;\n            require((prevSum + msg.value) >= prevSum);\n            assert(_match.team1BetSum >= prevSum);\n            _match.betsToTeam1[msg.sender] += msg.value;\n            _match.team1BetSum += msg.value;\n        }\n        NewBet(team0, msg.sender, msg.value);\n\n        \n\n    }\n\n\n    // TODO onlyCEO\n    function endBetsInMatch(bytes32 _matchid) external {\n        uint256 _match_index = getIndexById(_matchid);\n        Match storage _match = matches[_match_index];\n        assert(_match.state == true);\n        _match.state = false;\n        BetsEnd(_matchid);\n    }\n    \n    // TODO onlyCEO\n    function endMatch(bytes32 _matchid, uint8 _won) external {\n        uint256 _match_index = getIndexById(_matchid);\n        Match storage _match = matches[_match_index];\n        assert(_match.state == false);\n        _match.won = _won;\n        MatchResolved(_matchid, _won);\n    }\n    \n\n\n\n}\n\n\n",
  "sourcePath": "/Users/ferraz/trash/bitkup/bets/contracts/BetsBase.sol",
  "compiler": {
    "name": "solc",
    "version": "0.4.24+commit.e67f0147.Emscripten.clang"
  },
  "schemaVersion": "2.0.0",
  "updatedAt": "2018-06-02T20:15:10.800Z"
}