{
  "contractName": "BetsCore",
  "abi": [
    {
      "constant": true,
      "inputs": [],
      "name": "newContractAddress",
      "outputs": [
        {
          "name": "",
          "type": "address"
        }
      ],
      "payable": false,
      "stateMutability": "view",
      "type": "function"
    },
    {
      "constant": false,
      "inputs": [],
      "name": "BetCore",
      "outputs": [],
      "payable": false,
      "stateMutability": "nonpayable",
      "type": "function"
    }
  ],
  "bytecode": "0x608060405234801561001057600080fd5b50610109806100206000396000f3006080604052600436106049576000357c0100000000000000000000000000000000000000000000000000000000900463ffffffff1680636af04a5714604e578063e628ce771460a2575b600080fd5b348015605957600080fd5b50606060b6565b604051808273ffffffffffffffffffffffffffffffffffffffff1673ffffffffffffffffffffffffffffffffffffffff16815260200191505060405180910390f35b34801560ad57600080fd5b5060b460db565b005b6000809054906101000a900473ffffffffffffffffffffffffffffffffffffffff1681565b5600a165627a7a7230582073e8fa50ee1587b89ab525e24687ae0feef01788c89a00c38d53ef10719385670029",
  "source": "pragma solidity ^0.4.24;\n\n\n// import \"./BetsBase.sol\";\n\ncontract BetsCore{\n\n    //Set in case the core contract is broken and an upgrade is required\n    address public newContractAddress;\n\n    // Create the main Bet smart contract instance\n    function BetCore() public {\n        // Starts paused\n   //     paused = true;\n        \n        // the creator of the contract is the initial CEO\n     //   ceoAddress = msg.sender;\n\n        // the creator of the contract is also the initial arbiter\n       // arbiterAddress = msg.sender;\n\n    }\n\n//    function setNewAddress(address _v2Address) public onlyCEO whenPaused {\n //       newContractAddress = _v2Address;\n  //      ContractUpgrade(_v2Address);\n   // }\n\n    // Reject all ether from being sent here, unless it's from one of\n    // the two bet contracts\n //   function() external payable {\n   //     require(\n     //       msg.sender == address(BetsBase)\n       // );\n   // }\n\n\n\n\n}\n\n",
  "sourcePath": "/Users/ferraz/trash/bitkup/bets/contracts/BetsCore.sol",
  "compiler": {
    "name": "solc",
    "version": "0.4.24+commit.e67f0147.Emscripten.clang"
  },
  "schemaVersion": "2.0.0",
  "updatedAt": "2018-05-31T18:00:35.641Z"
}