{
  "contractName": "BetsBase",
  "abi": [
    {
      "constant": true,
      "inputs": [],
      "name": "ceoAddress",
      "outputs": [
        {
          "name": "",
          "type": "address"
        }
      ],
      "payable": false,
      "stateMutability": "view",
      "type": "function"
    },
    {
      "constant": false,
      "inputs": [
        {
          "name": "_newArbiter",
          "type": "address"
        }
      ],
      "name": "setArbiter",
      "outputs": [],
      "payable": false,
      "stateMutability": "nonpayable",
      "type": "function"
    },
    {
      "constant": false,
      "inputs": [
        {
          "name": "_newCEO",
          "type": "address"
        }
      ],
      "name": "setCEO",
      "outputs": [],
      "payable": false,
      "stateMutability": "nonpayable",
      "type": "function"
    },
    {
      "constant": false,
      "inputs": [],
      "name": "unpause",
      "outputs": [],
      "payable": false,
      "stateMutability": "nonpayable",
      "type": "function"
    },
    {
      "constant": true,
      "inputs": [],
      "name": "paused",
      "outputs": [
        {
          "name": "",
          "type": "bool"
        }
      ],
      "payable": false,
      "stateMutability": "view",
      "type": "function"
    },
    {
      "constant": true,
      "inputs": [],
      "name": "arbiterAddress",
      "outputs": [
        {
          "name": "",
          "type": "address"
        }
      ],
      "payable": false,
      "stateMutability": "view",
      "type": "function"
    },
    {
      "constant": false,
      "inputs": [],
      "name": "withdrawBalance",
      "outputs": [],
      "payable": false,
      "stateMutability": "nonpayable",
      "type": "function"
    },
    {
      "constant": false,
      "inputs": [],
      "name": "pause",
      "outputs": [],
      "payable": false,
      "stateMutability": "nonpayable",
      "type": "function"
    },
    {
      "anonymous": false,
      "inputs": [
        {
          "indexed": false,
          "name": "match_id",
          "type": "uint256"
        }
      ],
      "name": "MatchCreation",
      "type": "event"
    },
    {
      "anonymous": false,
      "inputs": [
        {
          "indexed": false,
          "name": "match_id",
          "type": "uint256"
        },
        {
          "indexed": true,
          "name": "from",
          "type": "address"
        },
        {
          "indexed": false,
          "name": "forTeam",
          "type": "bool"
        },
        {
          "indexed": false,
          "name": "amount",
          "type": "uint256"
        }
      ],
      "name": "BetMade",
      "type": "event"
    },
    {
      "anonymous": false,
      "inputs": [
        {
          "indexed": false,
          "name": "match_id",
          "type": "uint256"
        }
      ],
      "name": "MatchEnd",
      "type": "event"
    },
    {
      "anonymous": false,
      "inputs": [
        {
          "indexed": false,
          "name": "newContract",
          "type": "address"
        }
      ],
      "name": "ContractUpgrade",
      "type": "event"
    },
    {
      "constant": false,
      "inputs": [
        {
          "name": "_team0Name",
          "type": "string"
        },
        {
          "name": "_team1Name",
          "type": "string"
        }
      ],
      "name": "CreateMatch",
      "outputs": [],
      "payable": false,
      "stateMutability": "nonpayable",
      "type": "function"
    },
    {
      "constant": true,
      "inputs": [],
      "name": "test",
      "outputs": [
        {
          "name": "",
          "type": "string"
        }
      ],
      "payable": false,
      "stateMutability": "view",
      "type": "function"
    }
  ],
  "bytecode": "0x60806040526000600160146101000a81548160ff02191690831515021790555034801561002b57600080fd5b5061086e8061003b6000396000f3006080604052600436106100a4576000357c0100000000000000000000000000000000000000000000000000000000900463ffffffff1680630a0f8168146100a95780631c9c088a1461010057806327d7874c146101435780633f4ba83a146101865780635c975abb1461019d5780635d799306146101cc5780635fd8c710146102235780638456cb591461023a578063cbe5d3db14610251578063f8a8fd6d14610300575b600080fd5b3480156100b557600080fd5b506100be610390565b604051808273ffffffffffffffffffffffffffffffffffffffff1673ffffffffffffffffffffffffffffffffffffffff16815260200191505060405180910390f35b34801561010c57600080fd5b50610141600480360381019080803573ffffffffffffffffffffffffffffffffffffffff1690602001909291905050506103b5565b005b34801561014f57600080fd5b50610184600480360381019080803573ffffffffffffffffffffffffffffffffffffffff169060200190929190505050610491565b005b34801561019257600080fd5b5061019b61056b565b005b3480156101a957600080fd5b506101b26105fe565b604051808215151515815260200191505060405180910390f35b3480156101d857600080fd5b506101e1610611565b604051808273ffffffffffffffffffffffffffffffffffffffff1673ffffffffffffffffffffffffffffffffffffffff16815260200191505060405180910390f35b34801561022f57600080fd5b50610238610637565b005b34801561024657600080fd5b5061024f610713565b005b34801561025d57600080fd5b506102fe600480360381019080803590602001908201803590602001908080601f0160208091040260200160405190810160405280939291908181526020018383808284378201915050505050509192919290803590602001908201803590602001908080601f01602080910402602001604051908101604052809392919081815260200183838082843782019150505050505091929192905050506107a6565b005b34801561030c57600080fd5b50610315610805565b6040518080602001828103825283818151815260200191508051906020019080838360005b8381101561035557808201518184015260208101905061033a565b50505050905090810190601f1680156103825780820380516001836020036101000a031916815260200191505b509250505060405180910390f35b6000809054906101000a900473ffffffffffffffffffffffffffffffffffffffff1681565b600160009054906101000a900473ffffffffffffffffffffffffffffffffffffffff1673ffffffffffffffffffffffffffffffffffffffff163373ffffffffffffffffffffffffffffffffffffffff1614151561041157600080fd5b600073ffffffffffffffffffffffffffffffffffffffff168173ffffffffffffffffffffffffffffffffffffffff161415151561044d57600080fd5b80600160006101000a81548173ffffffffffffffffffffffffffffffffffffffff021916908373ffffffffffffffffffffffffffffffffffffffff16021790555050565b6000809054906101000a900473ffffffffffffffffffffffffffffffffffffffff1673ffffffffffffffffffffffffffffffffffffffff163373ffffffffffffffffffffffffffffffffffffffff161415156104ec57600080fd5b600073ffffffffffffffffffffffffffffffffffffffff168173ffffffffffffffffffffffffffffffffffffffff161415151561052857600080fd5b806000806101000a81548173ffffffffffffffffffffffffffffffffffffffff021916908373ffffffffffffffffffffffffffffffffffffffff16021790555050565b6000809054906101000a900473ffffffffffffffffffffffffffffffffffffffff1673ffffffffffffffffffffffffffffffffffffffff163373ffffffffffffffffffffffffffffffffffffffff161415156105c657600080fd5b600160149054906101000a900460ff1615156105e157600080fd5b6000600160146101000a81548160ff021916908315150217905550565b600160149054906101000a900460ff1681565b600160009054906101000a900473ffffffffffffffffffffffffffffffffffffffff1681565b6000809054906101000a900473ffffffffffffffffffffffffffffffffffffffff1673ffffffffffffffffffffffffffffffffffffffff163373ffffffffffffffffffffffffffffffffffffffff1614151561069257600080fd5b6000809054906101000a900473ffffffffffffffffffffffffffffffffffffffff1673ffffffffffffffffffffffffffffffffffffffff166108fc3073ffffffffffffffffffffffffffffffffffffffff16319081150290604051600060405180830381858888f19350505050158015610710573d6000803e3d6000fd5b50565b6000809054906101000a900473ffffffffffffffffffffffffffffffffffffffff1673ffffffffffffffffffffffffffffffffffffffff163373ffffffffffffffffffffffffffffffffffffffff1614151561076e57600080fd5b600160149054906101000a900460ff1615151561078a57600080fd5b60018060146101000a81548160ff021916908315150217905550565b6000809054906101000a900473ffffffffffffffffffffffffffffffffffffffff1673ffffffffffffffffffffffffffffffffffffffff163373ffffffffffffffffffffffffffffffffffffffff1614151561080157600080fd5b5050565b60606040805190810160405280600581526020017f74657374650000000000000000000000000000000000000000000000000000008152509050905600a165627a7a72305820ae95362b8c132aa4945a967aeef3446868eff278e8c178cd644083da8ef53d550029",
  "source": "pragma solidity ^0.4.18;\n\nimport \"./BetsAccessControl.sol\";\n\ncontract BetsBase is BetsAccessControl {\n    \n    event MatchCreation(uint256 match_id);\n\n    event BetMade(uint256 match_id, address indexed from, bool forTeam, uint amount);\n\n    event MatchEnd(uint256 match_id);\n\n    // The main match struct, every match in bitkup is represented by a copy\n    // of this structure \n    struct Match {\n        //match unique ID\n        uint256 match_id;\n\n        string team0Name;\n        string team1Name;\n        // array of bet sum on each team\n        uint team0BetSum;\n        uint team1BetSum;\n        // array of bet sum per address on each team\n        mapping (address => uint) betsToTeam0;\n        mapping (address => uint) betsToTeam1;\n\n        uint8 TAX;\n    \n    }\n\n    function CreateMatch(string _team0Name, string _team1Name) onlyCEO {\n    \n    \n    }\n    \n    function test() public view returns (string) {\n        return(\"teste\");\n    }\n\n\n\n}\n\n\n",
  "sourcePath": "/Users/ferraz/trash/bitkup/bets/contracts/BetsBase.sol",
  "compiler": {
    "name": "solc",
    "version": "0.4.24+commit.e67f0147.Emscripten.clang"
  },
  "schemaVersion": "2.0.0",
  "updatedAt": "2018-05-31T17:27:34.623Z"
}