{
  "contractName": "BetsBase",
  "abi": [
    {
      "anonymous": false,
      "inputs": [
        {
          "indexed": false,
          "name": "match_id",
          "type": "uint256"
        }
      ],
      "name": "MatchCreation",
      "type": "event"
    },
    {
      "anonymous": false,
      "inputs": [
        {
          "indexed": false,
          "name": "match_id",
          "type": "uint256"
        },
        {
          "indexed": true,
          "name": "from",
          "type": "address"
        },
        {
          "indexed": false,
          "name": "forTeam",
          "type": "bool"
        },
        {
          "indexed": false,
          "name": "amount",
          "type": "uint256"
        }
      ],
      "name": "BetMade",
      "type": "event"
    },
    {
      "anonymous": false,
      "inputs": [
        {
          "indexed": false,
          "name": "match_id",
          "type": "uint256"
        }
      ],
      "name": "MatchEnd",
      "type": "event"
    },
    {
      "constant": false,
      "inputs": [
        {
          "name": "_team0Name",
          "type": "string"
        },
        {
          "name": "_team1Name",
          "type": "string"
        }
      ],
      "name": "Create_Match",
      "outputs": [
        {
          "name": "",
          "type": "bytes32"
        }
      ],
      "payable": false,
      "stateMutability": "nonpayable",
      "type": "function"
    },
    {
      "constant": true,
      "inputs": [
        {
          "name": "document",
          "type": "string"
        }
      ],
      "name": "proofFor",
      "outputs": [
        {
          "name": "",
          "type": "bytes32"
        }
      ],
      "payable": false,
      "stateMutability": "view",
      "type": "function"
    },
    {
      "constant": true,
      "inputs": [
        {
          "name": "_index",
          "type": "uint256"
        }
      ],
      "name": "getMatch",
      "outputs": [
        {
          "name": "_team1Name",
          "type": "string"
        },
        {
          "name": "_team0Name",
          "type": "string"
        },
        {
          "name": "_matchId",
          "type": "bytes32"
        },
        {
          "name": "_team0BetSum",
          "type": "uint256"
        },
        {
          "name": "_tem1BetSum",
          "type": "uint256"
        }
      ],
      "payable": false,
      "stateMutability": "view",
      "type": "function"
    },
    {
      "constant": true,
      "inputs": [],
      "name": "getLength",
      "outputs": [
        {
          "name": "",
          "type": "uint256"
        }
      ],
      "payable": false,
      "stateMutability": "view",
      "type": "function"
    },
    {
      "constant": true,
      "inputs": [
        {
          "name": "_matchid",
          "type": "bytes32"
        }
      ],
      "name": "getIndexById",
      "outputs": [
        {
          "name": "",
          "type": "uint256"
        }
      ],
      "payable": false,
      "stateMutability": "view",
      "type": "function"
    },
    {
      "constant": false,
      "inputs": [
        {
          "name": "_matchid",
          "type": "bytes32"
        }
      ],
      "name": "makeBet",
      "outputs": [],
      "payable": true,
      "stateMutability": "payable",
      "type": "function"
    }
  ],
  "bytecode": "0x608060405234801561001057600080fd5b506108c5806100206000396000f300608060405260043610610078576000357c0100000000000000000000000000000000000000000000000000000000900463ffffffff168063284152dc1461007d5780633d092b3d146100a1578063466ab453146101d0578063be1c766b1461029b578063c235b3b9146102c6578063f6c1acdf1461030b575b600080fd5b61009f6004803603810190808035600019169060200190929190505050610390565b005b3480156100ad57600080fd5b506100cc600480360381019080803590602001909291905050506103a1565b6040518080602001806020018660001916600019168152602001858152602001848152602001838103835288818151815260200191508051906020019080838360005b8381101561012a57808201518184015260208101905061010f565b50505050905090810190601f1680156101575780820380516001836020036101000a031916815260200191505b50838103825287818151815260200191508051906020019080838360005b83811015610190578082015181840152602081019050610175565b50505050905090810190601f1680156101bd5780820380516001836020036101000a031916815260200191505b5097505050505050505060405180910390f35b3480156101dc57600080fd5b5061027d600480360381019080803590602001908201803590602001908080601f0160208091040260200160405190810160405280939291908181526020018383808284378201915050505050509192919290803590602001908201803590602001908080601f016020809104026020016040519081016040528093929190818152602001838380828437820191505050505050919291929050505061052c565b60405180826000191660001916815260200191505060405180910390f35b3480156102a757600080fd5b506102b06106cd565b6040518082815260200191505060405180910390f35b3480156102d257600080fd5b506102f560048036038101908080356000191690602001909291905050506106da565b6040518082815260200191505060405180910390f35b34801561031757600080fd5b50610372600480360381019080803590602001908201803590602001908080601f0160208091040260200160405190810160405280939291908181526020018383808284378201915050505050509192919290505050610703565b60405180826000191660001916815260200191505060405180910390f35b600034141561039e57600080fd5b50565b6060806000806000806001878154811015156103b957fe5b906000526020600020906008020190508060020181600101826000015483600301548460040154848054600181600116156101000203166002900480601f0160208091040260200160405190810160405280929190818152602001828054600181600116156101000203166002900480156104755780601f1061044a57610100808354040283529160200191610475565b820191906000526020600020905b81548152906001019060200180831161045857829003601f168201915b50505050509450838054600181600116156101000203166002900480601f0160208091040260200160405190810160405280929190818152602001828054600181600116156101000203166002900480156105115780601f106104e657610100808354040283529160200191610511565b820191906000526020600020905b8154815290600101906020018083116104f457829003601f168201915b50505050509350955095509550955095505091939590929450565b60006105366107ae565b600060e060405190810160405280600242604051808281526020019150506020604051808303816000865af1158015610573573d6000803e3d6000fd5b5050506040513d602081101561058857600080fd5b81019080805190602001909291905050506000191681526020018681526020018581526020016000815260200160018152602001600115158152602001600a60ff168152509150600180839080600181540180825580915050906001820390600052602060002090600802016000909192909190915060008201518160000190600019169055602082015181600101908051906020019061062a9291906107f4565b5060408201518160020190805190602001906106479291906107f4565b50606082015181600301556080820151816004015560a08201518160070160006101000a81548160ff02191690831515021790555060c08201518160070160016101000a81548160ff021916908360ff16021790555050500390508060008084600001516000191660001916815260200190815260200160002081905550505092915050565b6000600180549050905090565b600080600080846000191660001916815260200190815260200160002054905080915050919050565b60006002826040518082805190602001908083835b60208310151561073d5780518252602082019150602081019050602083039250610718565b6001836020036101000a0380198251168184511680821785525050505050509050019150506020604051808303816000865af1158015610781573d6000803e3d6000fd5b5050506040513d602081101561079657600080fd5b81019080805190602001909291905050509050919050565b60e0604051908101604052806000801916815260200160608152602001606081526020016000815260200160008152602001600015158152602001600060ff1681525090565b828054600181600116156101000203166002900490600052602060002090601f016020900481019282601f1061083557805160ff1916838001178555610863565b82800160010185558215610863579182015b82811115610862578251825591602001919060010190610847565b5b5090506108709190610874565b5090565b61089691905b8082111561089257600081600090555060010161087a565b5090565b905600a165627a7a7230582062fb37912e246d975d0a2be4fe568ea0aab0ee10750b38d1fda1f8ebe91f05870029",
  "source": "pragma solidity ^0.4.18;\n\n// import \"./BetsAccessControl.sol\";\n\ncontract BetsBase {\n    \n    event MatchCreation(uint256 match_id);\n\n    event BetMade(uint256 match_id, address indexed from, bool forTeam, uint amount);\n\n    event MatchEnd(uint256 match_id);\n\n    // The main match struct, every match in bitkup is represented by a copy\n    // of this structure \n    struct Match {\n        //match unique ID\n        bytes32 match_id;\n\n        string team0Name;\n        string team1Name;\n        // array of bet sum on each team\n        uint team0BetSum;\n        uint team1BetSum;\n        // array of bet sum per address on each team\n        mapping (address => uint) betsToTeam0;\n        mapping (address => uint) betsToTeam1;\n        bool state;\n        uint8 TAX;\n    \n    }\n\n    mapping (bytes32 => uint256) Matches_Index;\n\n    Match[] matches;\n\n    function Create_Match(string _team0Name, string _team1Name) returns (bytes32) {\n        Match memory _match = Match({\n            match_id: sha256(block.timestamp),\n            team0Name: _team0Name,\n            team1Name: _team1Name,\n            team0BetSum: 0,\n            team1BetSum: 1,\n            state: true,\n            TAX: 10\n        });\n        uint256 newMatchIndex = matches.push(_match) - 1;\n        Matches_Index[_match.match_id] = newMatchIndex;\n    }\n\n\n    function proofFor(string document) constant returns (bytes32) {\n        return sha256(document);\n    }\n\n    function getMatch(uint _index) constant returns (string _team1Name, string _team0Name, bytes32 _matchId, uint _team0BetSum, uint _tem1BetSum) {\n        Match storage _match = matches[_index];\n        return (_match.team1Name, _match.team0Name, _match.match_id, _match.team0BetSum, _match.team1BetSum);\n    \n    }\n\n    function getLength() public view returns (uint){\n        return (matches.length);\n\n    }\n\n    function getIndexById(bytes32 _matchid) constant returns (uint256) {\n        uint256 Match_Index = Matches_Index[_matchid];\n        return (Match_Index);\n\n    }\n\n\n    function makeBet(bytes32 _matchid) payable external {\n        if (msg.value == 0) throw;\n        \n\n    }\n\n\n}\n\n\n",
  "sourcePath": "/Users/ferraz/trash/bitkup/bets/contracts/BetsBase.sol",
  "compiler": {
    "name": "solc",
    "version": "0.4.24+commit.e67f0147.Emscripten.clang"
  },
  "schemaVersion": "2.0.0",
  "updatedAt": "2018-05-31T20:46:05.616Z"
}