{
  "contractName": "BetsCore",
  "abi": [
    {
      "constant": true,
      "inputs": [],
      "name": "ceoAddress",
      "outputs": [
        {
          "name": "",
          "type": "address"
        }
      ],
      "payable": false,
      "stateMutability": "view",
      "type": "function"
    },
    {
      "constant": false,
      "inputs": [
        {
          "name": "_newArbiter",
          "type": "address"
        }
      ],
      "name": "setArbiter",
      "outputs": [],
      "payable": false,
      "stateMutability": "nonpayable",
      "type": "function"
    },
    {
      "constant": true,
      "inputs": [
        {
          "name": "_match_id",
          "type": "bytes32"
        }
      ],
      "name": "getsMultiplier",
      "outputs": [
        {
          "name": "",
          "type": "uint256"
        },
        {
          "name": "",
          "type": "uint256"
        }
      ],
      "payable": false,
      "stateMutability": "view",
      "type": "function"
    },
    {
      "constant": false,
      "inputs": [
        {
          "name": "_newCEO",
          "type": "address"
        }
      ],
      "name": "setCEO",
      "outputs": [],
      "payable": false,
      "stateMutability": "nonpayable",
      "type": "function"
    },
    {
      "constant": true,
      "inputs": [
        {
          "name": "_match_id",
          "type": "bytes32"
        }
      ],
      "name": "getBetsBalance",
      "outputs": [
        {
          "name": "",
          "type": "uint256"
        },
        {
          "name": "",
          "type": "uint256"
        }
      ],
      "payable": false,
      "stateMutability": "view",
      "type": "function"
    },
    {
      "constant": true,
      "inputs": [
        {
          "name": "_index",
          "type": "uint256"
        }
      ],
      "name": "getMatch",
      "outputs": [
        {
          "name": "_team1Name",
          "type": "string"
        },
        {
          "name": "_team0Name",
          "type": "string"
        },
        {
          "name": "_matchId",
          "type": "bytes32"
        },
        {
          "name": "_team0BetSum",
          "type": "uint256"
        },
        {
          "name": "_tem1BetSum",
          "type": "uint256"
        },
        {
          "name": "_state",
          "type": "bool"
        },
        {
          "name": "_won",
          "type": "uint256"
        }
      ],
      "payable": false,
      "stateMutability": "view",
      "type": "function"
    },
    {
      "constant": false,
      "inputs": [],
      "name": "unpause",
      "outputs": [],
      "payable": false,
      "stateMutability": "nonpayable",
      "type": "function"
    },
    {
      "constant": false,
      "inputs": [],
      "name": "kill",
      "outputs": [],
      "payable": false,
      "stateMutability": "nonpayable",
      "type": "function"
    },
    {
      "constant": false,
      "inputs": [
        {
          "name": "_team0Name",
          "type": "string"
        },
        {
          "name": "_team1Name",
          "type": "string"
        }
      ],
      "name": "Create_Match",
      "outputs": [],
      "payable": false,
      "stateMutability": "nonpayable",
      "type": "function"
    },
    {
      "constant": false,
      "inputs": [
        {
          "name": "_matchid",
          "type": "bytes32"
        },
        {
          "name": "_won",
          "type": "uint8"
        }
      ],
      "name": "endMatch",
      "outputs": [],
      "payable": false,
      "stateMutability": "nonpayable",
      "type": "function"
    },
    {
      "constant": false,
      "inputs": [
        {
          "name": "_matchid",
          "type": "bytes32"
        }
      ],
      "name": "endBetsInMatch",
      "outputs": [],
      "payable": false,
      "stateMutability": "nonpayable",
      "type": "function"
    },
    {
      "constant": true,
      "inputs": [],
      "name": "paused",
      "outputs": [
        {
          "name": "",
          "type": "bool"
        }
      ],
      "payable": false,
      "stateMutability": "view",
      "type": "function"
    },
    {
      "constant": true,
      "inputs": [],
      "name": "arbiterAddress",
      "outputs": [
        {
          "name": "",
          "type": "address"
        }
      ],
      "payable": false,
      "stateMutability": "view",
      "type": "function"
    },
    {
      "constant": false,
      "inputs": [],
      "name": "withdrawBalance",
      "outputs": [],
      "payable": false,
      "stateMutability": "nonpayable",
      "type": "function"
    },
    {
      "constant": true,
      "inputs": [],
      "name": "newContractAddress",
      "outputs": [
        {
          "name": "",
          "type": "address"
        }
      ],
      "payable": false,
      "stateMutability": "view",
      "type": "function"
    },
    {
      "constant": false,
      "inputs": [
        {
          "name": "_matchid",
          "type": "bytes32"
        }
      ],
      "name": "withdrawRewards",
      "outputs": [],
      "payable": false,
      "stateMutability": "nonpayable",
      "type": "function"
    },
    {
      "constant": false,
      "inputs": [],
      "name": "pause",
      "outputs": [],
      "payable": false,
      "stateMutability": "nonpayable",
      "type": "function"
    },
    {
      "constant": false,
      "inputs": [
        {
          "name": "_matchid",
          "type": "bytes32"
        },
        {
          "name": "team0",
          "type": "bool"
        }
      ],
      "name": "makeBet",
      "outputs": [],
      "payable": true,
      "stateMutability": "payable",
      "type": "function"
    },
    {
      "constant": true,
      "inputs": [],
      "name": "getLength",
      "outputs": [
        {
          "name": "",
          "type": "uint256"
        }
      ],
      "payable": false,
      "stateMutability": "view",
      "type": "function"
    },
    {
      "constant": true,
      "inputs": [
        {
          "name": "document",
          "type": "string"
        }
      ],
      "name": "proofFor",
      "outputs": [
        {
          "name": "",
          "type": "bytes32"
        }
      ],
      "payable": false,
      "stateMutability": "view",
      "type": "function"
    },
    {
      "inputs": [],
      "payable": false,
      "stateMutability": "nonpayable",
      "type": "constructor"
    },
    {
      "payable": true,
      "stateMutability": "payable",
      "type": "fallback"
    },
    {
      "anonymous": false,
      "inputs": [
        {
          "indexed": false,
          "name": "team0",
          "type": "bool"
        },
        {
          "indexed": true,
          "name": "from",
          "type": "address"
        },
        {
          "indexed": false,
          "name": "amount",
          "type": "uint256"
        }
      ],
      "name": "NewBet",
      "type": "event"
    },
    {
      "anonymous": false,
      "inputs": [
        {
          "indexed": false,
          "name": "match_id",
          "type": "bytes32"
        }
      ],
      "name": "MatchCreation",
      "type": "event"
    },
    {
      "anonymous": false,
      "inputs": [
        {
          "indexed": false,
          "name": "match_id",
          "type": "bytes32"
        }
      ],
      "name": "BetsEnd",
      "type": "event"
    },
    {
      "anonymous": false,
      "inputs": [
        {
          "indexed": false,
          "name": "match_id",
          "type": "bytes32"
        },
        {
          "indexed": false,
          "name": "won",
          "type": "uint8"
        }
      ],
      "name": "MatchResolved",
      "type": "event"
    },
    {
      "anonymous": false,
      "inputs": [
        {
          "indexed": false,
          "name": "newContract",
          "type": "address"
        }
      ],
      "name": "ContractUpgrade",
      "type": "event"
    }
  ],
  "bytecode": "0x60806040526000600160146101000a81548160ff02191690831515021790555034801561002b57600080fd5b5060018060146101000a81548160ff021916908315150217905550336000806101000a81548173ffffffffffffffffffffffffffffffffffffffff021916908373ffffffffffffffffffffffffffffffffffffffff16021790555033600160006101000a81548173ffffffffffffffffffffffffffffffffffffffff021916908373ffffffffffffffffffffffffffffffffffffffff160217905550611aa4806100d66000396000f300608060405260043610610112576000357c0100000000000000000000000000000000000000000000000000000000900463ffffffff1680630a0f8168146101145780631c9c088a1461016b578063229cf55c146101ae57806327d7874c146101fa5780633173bba51461023d5780633d092b3d146102895780633f4ba83a146103ca57806341c0e1b5146103e1578063466ab453146103f857806350efcdb2146104a757806356022d15146104e55780635c975abb146105165780635d799306146105455780635fd8c7101461059c5780636af04a57146105b35780637dfb66261461060a5780638456cb591461063b5780638ef541e014610652578063be1c766b14610682578063f6c1acdf146106ad575b005b34801561012057600080fd5b50610129610732565b604051808273ffffffffffffffffffffffffffffffffffffffff1673ffffffffffffffffffffffffffffffffffffffff16815260200191505060405180910390f35b34801561017757600080fd5b506101ac600480360381019080803573ffffffffffffffffffffffffffffffffffffffff169060200190929190505050610757565b005b3480156101ba57600080fd5b506101dd6004803603810190808035600019169060200190929190505050610833565b604051808381526020018281526020019250505060405180910390f35b34801561020657600080fd5b5061023b600480360381019080803573ffffffffffffffffffffffffffffffffffffffff16906020019092919050505061083b565b005b34801561024957600080fd5b5061026c6004803603810190808035600019169060200190929190505050610915565b604051808381526020018281526020019250505060405180910390f35b34801561029557600080fd5b506102b4600480360381019080803590602001909291905050506109df565b60405180806020018060200188600019166000191681526020018781526020018681526020018515151515815260200184815260200183810383528a818151815260200191508051906020019080838360005b83811015610322578082015181840152602081019050610307565b50505050905090810190601f16801561034f5780820380516001836020036101000a031916815260200191505b50838103825289818151815260200191508051906020019080838360005b8381101561038857808201518184015260208101905061036d565b50505050905090810190601f1680156103b55780820380516001836020036101000a031916815260200191505b50995050505050505050505060405180910390f35b3480156103d657600080fd5b506103df610b8a565b005b3480156103ed57600080fd5b506103f6610c1d565b005b34801561040457600080fd5b506104a5600480360381019080803590602001908201803590602001908080601f0160208091040260200160405190810160405280939291908181526020018383808284378201915050505050509192919290803590602001908201803590602001908080601f0160208091040260200160405190810160405280939291908181526020018383808284378201915050505050509192919290505050610d0d565b005b3480156104b357600080fd5b506104e36004803603810190808035600019169060200190929190803560ff169060200190929190505050610f78565b005b3480156104f157600080fd5b50610514600480360381019080803560001916906020019092919050505061109c565b005b34801561052257600080fd5b5061052b6111c2565b604051808215151515815260200191505060405180910390f35b34801561055157600080fd5b5061055a6111d5565b604051808273ffffffffffffffffffffffffffffffffffffffff1673ffffffffffffffffffffffffffffffffffffffff16815260200191505060405180910390f35b3480156105a857600080fd5b506105b16111fb565b005b3480156105bf57600080fd5b506105c86112d7565b604051808273ffffffffffffffffffffffffffffffffffffffff1673ffffffffffffffffffffffffffffffffffffffff16815260200191505060405180910390f35b34801561061657600080fd5b5061063960048036038101908080356000191690602001909291905050506112fd565b005b34801561064757600080fd5b5061065061162c565b005b61068060048036038101908080356000191690602001909291908035151590602001909291905050506116bf565b005b34801561068e57600080fd5b506106976118a3565b6040518082815260200191505060405180910390f35b3480156106b957600080fd5b50610714600480360381019080803590602001908201803590602001908080601f01602080910402602001604051908101604052809392919081815260200183838082843782019150505050505091929192905050506118b0565b60405180826000191660001916815260200191505060405180910390f35b6000809054906101000a900473ffffffffffffffffffffffffffffffffffffffff1681565b600160009054906101000a900473ffffffffffffffffffffffffffffffffffffffff1673ffffffffffffffffffffffffffffffffffffffff163373ffffffffffffffffffffffffffffffffffffffff161415156107b357600080fd5b600073ffffffffffffffffffffffffffffffffffffffff168173ffffffffffffffffffffffffffffffffffffffff16141515156107ef57600080fd5b80600160006101000a81548173ffffffffffffffffffffffffffffffffffffffff021916908373ffffffffffffffffffffffffffffffffffffffff16021790555050565b600080915091565b6000809054906101000a900473ffffffffffffffffffffffffffffffffffffffff1673ffffffffffffffffffffffffffffffffffffffff163373ffffffffffffffffffffffffffffffffffffffff1614151561089657600080fd5b600073ffffffffffffffffffffffffffffffffffffffff168173ffffffffffffffffffffffffffffffffffffffff16141515156108d257600080fd5b806000806101000a81548173ffffffffffffffffffffffffffffffffffffffff021916908373ffffffffffffffffffffffffffffffffffffffff16021790555050565b6000806000806000806109278761195b565b935060038481548110151561093857fe5b906000526020600020906009020192508260050160003373ffffffffffffffffffffffffffffffffffffffff1673ffffffffffffffffffffffffffffffffffffffff1681526020019081526020016000205491508260060160003373ffffffffffffffffffffffffffffffffffffffff1673ffffffffffffffffffffffffffffffffffffffff16815260200190815260200160002054905081819550955050505050915091565b6060806000806000806000806003898154811015156109fa57fe5b9060005260206000209060090201905080600201816001018260000154836003015484600401548560070160009054906101000a900460ff168660080154868054600181600116156101000203166002900480601f016020809104026020016040519081016040528092919081815260200182805460018160011615610100020316600290048015610acd5780601f10610aa257610100808354040283529160200191610acd565b820191906000526020600020905b815481529060010190602001808311610ab057829003601f168201915b50505050509650858054600181600116156101000203166002900480601f016020809104026020016040519081016040528092919081815260200182805460018160011615610100020316600290048015610b695780601f10610b3e57610100808354040283529160200191610b69565b820191906000526020600020905b815481529060010190602001808311610b4c57829003601f168201915b50505050509550975097509750975097509750975050919395979092949650565b6000809054906101000a900473ffffffffffffffffffffffffffffffffffffffff1673ffffffffffffffffffffffffffffffffffffffff163373ffffffffffffffffffffffffffffffffffffffff16141515610be557600080fd5b600160149054906101000a900460ff161515610c0057600080fd5b6000600160146101000a81548160ff021916908315150217905550565b6000809054906101000a900473ffffffffffffffffffffffffffffffffffffffff1673ffffffffffffffffffffffffffffffffffffffff163373ffffffffffffffffffffffffffffffffffffffff16141515610c7857600080fd5b6000809054906101000a900473ffffffffffffffffffffffffffffffffffffffff1673ffffffffffffffffffffffffffffffffffffffff163373ffffffffffffffffffffffffffffffffffffffff16141515610cd357600080fd5b6000809054906101000a900473ffffffffffffffffffffffffffffffffffffffff1673ffffffffffffffffffffffffffffffffffffffff16ff5b610d15611985565b60008060009054906101000a900473ffffffffffffffffffffffffffffffffffffffff1673ffffffffffffffffffffffffffffffffffffffff163373ffffffffffffffffffffffffffffffffffffffff16141515610d7257600080fd5b600160149054906101000a900460ff16151515610d8e57600080fd5b61010060405190810160405280600242604051808281526020019150506020604051808303816000865af1158015610dca573d6000803e3d6000fd5b5050506040513d6020811015610ddf57600080fd5b81019080805190602001909291905050506000191681526020018581526020018481526020016000815260200160008152602001600115158152602001601460ff16815260200160028152509150600160038390806001815401808255809150509060018203906000526020600020906009020160009091929091909150600082015181600001906000191690556020820151816001019080519060200190610e899291906119d3565b506040820151816002019080519060200190610ea69291906119d3565b50606082015181600301556080820151816004015560a08201518160070160006101000a81548160ff02191690831515021790555060c08201518160070160016101000a81548160ff021916908360ff16021790555060e0820151816008015550500390508060026000846000015160001916600019168152602001908152602001600020819055507f9f88e75efd248809da057a850607202572b49188500b34e438c1884af6b17435826000015160405180826000191660001916815260200191505060405180910390a150505050565b6000806000809054906101000a900473ffffffffffffffffffffffffffffffffffffffff1673ffffffffffffffffffffffffffffffffffffffff163373ffffffffffffffffffffffffffffffffffffffff16141515610fd657600080fd5b600160149054906101000a900460ff16151515610ff257600080fd5b610ffb8461195b565b915060038281548110151561100c57fe5b90600052602060002090600902019050600015158160070160009054906101000a900460ff16151514151561103d57fe5b8260ff1681600801819055507fea8ea0d25c20e9a805057bc82c595929a741d114709f74e467893892d14ba66d84846040518083600019166000191681526020018260ff1660ff1681526020019250505060405180910390a150505050565b6000806000809054906101000a900473ffffffffffffffffffffffffffffffffffffffff1673ffffffffffffffffffffffffffffffffffffffff163373ffffffffffffffffffffffffffffffffffffffff161415156110fa57600080fd5b600160149054906101000a900460ff1615151561111657600080fd5b61111f8361195b565b915060038281548110151561113057fe5b90600052602060002090600902019050600115158160070160009054906101000a900460ff16151514151561116157fe5b60008160070160006101000a81548160ff0219169083151502179055507fcea978e6c38ee40d0faa8e6fcded6f4f353851fd8f6e79314b42835546201b798360405180826000191660001916815260200191505060405180910390a1505050565b600160149054906101000a900460ff1681565b600160009054906101000a900473ffffffffffffffffffffffffffffffffffffffff1681565b6000809054906101000a900473ffffffffffffffffffffffffffffffffffffffff1673ffffffffffffffffffffffffffffffffffffffff163373ffffffffffffffffffffffffffffffffffffffff1614151561125657600080fd5b6000809054906101000a900473ffffffffffffffffffffffffffffffffffffffff1673ffffffffffffffffffffffffffffffffffffffff166108fc3073ffffffffffffffffffffffffffffffffffffffff16319081150290604051600060405180830381858888f193505050501580156112d4573d6000803e3d6000fd5b50565b600460009054906101000a900473ffffffffffffffffffffffffffffffffffffffff1681565b600080600080600160149054906101000a900460ff1615151561131f57600080fd5b6113288561195b565b935060038481548110151561133957fe5b9060005260206000209060090201925060009150600283600801541415151561136157600080fd5b6000836008015414156114c35760008360050160003373ffffffffffffffffffffffffffffffffffffffff1673ffffffffffffffffffffffffffffffffffffffff16815260200190815260200160002054141515156113bf57600080fd5b8260070160019054906101000a900460ff1660ff168360040154029050808360050160003373ffffffffffffffffffffffffffffffffffffffff1673ffffffffffffffffffffffffffffffffffffffff1681526020019081526020016000205402915082600301548281151561143157fe5b04915060008360050160003373ffffffffffffffffffffffffffffffffffffffff1673ffffffffffffffffffffffffffffffffffffffff168152602001908152602001600020819055503373ffffffffffffffffffffffffffffffffffffffff166108fc839081150290604051600060405180830381858888f193505050501580156114c1573d6000803e3d6000fd5b505b6001836008015414156116255760008360060160003373ffffffffffffffffffffffffffffffffffffffff1673ffffffffffffffffffffffffffffffffffffffff168152602001908152602001600020541415151561152157600080fd5b8260070160019054906101000a900460ff1660ff168360030154029050808360060160003373ffffffffffffffffffffffffffffffffffffffff1673ffffffffffffffffffffffffffffffffffffffff1681526020019081526020016000205402915082600401548281151561159357fe5b04915060008360060160003373ffffffffffffffffffffffffffffffffffffffff1673ffffffffffffffffffffffffffffffffffffffff168152602001908152602001600020819055503373ffffffffffffffffffffffffffffffffffffffff166108fc839081150290604051600060405180830381858888f19350505050158015611623573d6000803e3d6000fd5b505b5050505050565b6000809054906101000a900473ffffffffffffffffffffffffffffffffffffffff1673ffffffffffffffffffffffffffffffffffffffff163373ffffffffffffffffffffffffffffffffffffffff1614151561168757600080fd5b600160149054906101000a900460ff161515156116a357600080fd5b60018060146101000a81548160ff021916908315150217905550565b600080600080341115156116d257600080fd5b6116db8561195b565b92506003838154811015156116ec57fe5b90600052602060002090600902019150600115158260070160009054906101000a900460ff16151514151561171d57fe5b6001151584151514156117b85781600301549050803482011015151561174257600080fd5b8082600301541015151561175257fe5b348260050160003373ffffffffffffffffffffffffffffffffffffffff1673ffffffffffffffffffffffffffffffffffffffff16815260200190815260200160002060008282540192505081905550348260030160008282540192505081905550611842565b8160040154905080348201101515156117d057600080fd5b808260040154101515156117e057fe5b348260060160003373ffffffffffffffffffffffffffffffffffffffff1673ffffffffffffffffffffffffffffffffffffffff168152602001908152602001600020600082825401925050819055503482600401600082825401925050819055505b3373ffffffffffffffffffffffffffffffffffffffff167f1b38a56bd7d8dadb187b26b17babdbceae24d5afbb964299b18584c0ac6006e5853460405180831515151581526020018281526020019250505060405180910390a25050505050565b6000600380549050905090565b60006002826040518082805190602001908083835b6020831015156118ea57805182526020820191506020810190506020830392506118c5565b6001836020036101000a0380198251168184511680821785525050505050509050019150506020604051808303816000865af115801561192e573d6000803e3d6000fd5b5050506040513d602081101561194357600080fd5b81019080805190602001909291905050509050919050565b60008060026000846000191660001916815260200190815260200160002054905080915050919050565b610100604051908101604052806000801916815260200160608152602001606081526020016000815260200160008152602001600015158152602001600060ff168152602001600081525090565b828054600181600116156101000203166002900490600052602060002090601f016020900481019282601f10611a1457805160ff1916838001178555611a42565b82800160010185558215611a42579182015b82811115611a41578251825591602001919060010190611a26565b5b509050611a4f9190611a53565b5090565b611a7591905b80821115611a71576000816000905550600101611a59565b5090565b905600a165627a7a72305820ac6a1d9d7c48bf5559b2740b8656774dcfc81f3f30f8d76631d7a51fc9129c060029",
  "source": "pragma solidity ^0.4.24;\n\n\nimport \"./BetsBase.sol\";\n\ncontract BetsCore is BetsBase{\n\n    //Set in case the core contract is broken and an upgrade is required\n    address public newContractAddress;\n\n    // Create the main Bet smart contract instance\n    function BetsCore() public {\n        paused = true;\n        ceoAddress = msg.sender;\n        arbiterAddress = msg.sender;\n    }\n//    function setNewAddress(address _v2Address) public onlyCEO whenPaused {\n //       newContractAddress = _v2Address;\n  //      ContractUpgrade(_v2Address);\n   // }\n\n    // Reject all ether from being sent here, unless it's from one of\n    // the two bet contracts\n //   function() external payable {\n   //     require(\n     //       msg.sender == address(BetsBase)\n       // );\n   // }\n\n\n\n\n}\n\n",
  "sourcePath": "/Users/ferraz/trash/bitkup/contracts/BetsCore.sol",
  "compiler": {
    "name": "solc",
    "version": "0.4.24+commit.e67f0147.Emscripten.clang"
  },
  "schemaVersion": "2.0.0",
  "updatedAt": "2018-06-03T04:05:29.155Z"
}