{
  "contractName": "BetsCore",
  "abi": [
    {
      "constant": true,
      "inputs": [],
      "name": "ceoAddress",
      "outputs": [
        {
          "name": "",
          "type": "address"
        }
      ],
      "payable": false,
      "stateMutability": "view",
      "type": "function"
    },
    {
      "constant": false,
      "inputs": [
        {
          "name": "_newArbiter",
          "type": "address"
        }
      ],
      "name": "setArbiter",
      "outputs": [],
      "payable": false,
      "stateMutability": "nonpayable",
      "type": "function"
    },
    {
      "constant": false,
      "inputs": [
        {
          "name": "_newCEO",
          "type": "address"
        }
      ],
      "name": "setCEO",
      "outputs": [],
      "payable": false,
      "stateMutability": "nonpayable",
      "type": "function"
    },
    {
      "constant": true,
      "inputs": [
        {
          "name": "_index",
          "type": "uint256"
        }
      ],
      "name": "getMatch",
      "outputs": [
        {
          "name": "_team1Name",
          "type": "string"
        },
        {
          "name": "_team0Name",
          "type": "string"
        },
        {
          "name": "_matchId",
          "type": "bytes32"
        },
        {
          "name": "_team0BetSum",
          "type": "uint256"
        },
        {
          "name": "_tem1BetSum",
          "type": "uint256"
        }
      ],
      "payable": false,
      "stateMutability": "view",
      "type": "function"
    },
    {
      "constant": false,
      "inputs": [],
      "name": "unpause",
      "outputs": [],
      "payable": false,
      "stateMutability": "nonpayable",
      "type": "function"
    },
    {
      "constant": false,
      "inputs": [
        {
          "name": "_team0Name",
          "type": "string"
        },
        {
          "name": "_team1Name",
          "type": "string"
        }
      ],
      "name": "Create_Match",
      "outputs": [
        {
          "name": "",
          "type": "bytes32"
        }
      ],
      "payable": false,
      "stateMutability": "nonpayable",
      "type": "function"
    },
    {
      "constant": false,
      "inputs": [
        {
          "name": "_matchid",
          "type": "bytes32"
        },
        {
          "name": "_won",
          "type": "uint8"
        }
      ],
      "name": "endMatch",
      "outputs": [],
      "payable": false,
      "stateMutability": "nonpayable",
      "type": "function"
    },
    {
      "constant": false,
      "inputs": [
        {
          "name": "_matchid",
          "type": "bytes32"
        }
      ],
      "name": "endBetsInMatch",
      "outputs": [],
      "payable": false,
      "stateMutability": "nonpayable",
      "type": "function"
    },
    {
      "constant": true,
      "inputs": [],
      "name": "paused",
      "outputs": [
        {
          "name": "",
          "type": "bool"
        }
      ],
      "payable": false,
      "stateMutability": "view",
      "type": "function"
    },
    {
      "constant": true,
      "inputs": [],
      "name": "arbiterAddress",
      "outputs": [
        {
          "name": "",
          "type": "address"
        }
      ],
      "payable": false,
      "stateMutability": "view",
      "type": "function"
    },
    {
      "constant": false,
      "inputs": [],
      "name": "withdrawBalance",
      "outputs": [],
      "payable": false,
      "stateMutability": "nonpayable",
      "type": "function"
    },
    {
      "constant": true,
      "inputs": [],
      "name": "newContractAddress",
      "outputs": [
        {
          "name": "",
          "type": "address"
        }
      ],
      "payable": false,
      "stateMutability": "view",
      "type": "function"
    },
    {
      "constant": false,
      "inputs": [
        {
          "name": "_matchid",
          "type": "bytes32"
        }
      ],
      "name": "withdrawRewards",
      "outputs": [],
      "payable": false,
      "stateMutability": "nonpayable",
      "type": "function"
    },
    {
      "constant": false,
      "inputs": [],
      "name": "pause",
      "outputs": [],
      "payable": false,
      "stateMutability": "nonpayable",
      "type": "function"
    },
    {
      "constant": false,
      "inputs": [
        {
          "name": "_matchid",
          "type": "bytes32"
        },
        {
          "name": "team0",
          "type": "bool"
        }
      ],
      "name": "makeBet",
      "outputs": [],
      "payable": true,
      "stateMutability": "payable",
      "type": "function"
    },
    {
      "constant": true,
      "inputs": [],
      "name": "getLength",
      "outputs": [
        {
          "name": "",
          "type": "uint256"
        }
      ],
      "payable": false,
      "stateMutability": "view",
      "type": "function"
    },
    {
      "constant": true,
      "inputs": [
        {
          "name": "document",
          "type": "string"
        }
      ],
      "name": "proofFor",
      "outputs": [
        {
          "name": "",
          "type": "bytes32"
        }
      ],
      "payable": false,
      "stateMutability": "view",
      "type": "function"
    },
    {
      "inputs": [],
      "payable": false,
      "stateMutability": "nonpayable",
      "type": "constructor"
    },
    {
      "anonymous": false,
      "inputs": [
        {
          "indexed": false,
          "name": "team0",
          "type": "bool"
        },
        {
          "indexed": true,
          "name": "from",
          "type": "address"
        },
        {
          "indexed": false,
          "name": "amount",
          "type": "uint256"
        }
      ],
      "name": "NewBet",
      "type": "event"
    },
    {
      "anonymous": false,
      "inputs": [
        {
          "indexed": false,
          "name": "match_id",
          "type": "bytes32"
        }
      ],
      "name": "MatchCreation",
      "type": "event"
    },
    {
      "anonymous": false,
      "inputs": [
        {
          "indexed": false,
          "name": "match_id",
          "type": "bytes32"
        }
      ],
      "name": "BetsEnd",
      "type": "event"
    },
    {
      "anonymous": false,
      "inputs": [
        {
          "indexed": false,
          "name": "match_id",
          "type": "bytes32"
        },
        {
          "indexed": false,
          "name": "won",
          "type": "uint8"
        }
      ],
      "name": "MatchResolved",
      "type": "event"
    },
    {
      "anonymous": false,
      "inputs": [
        {
          "indexed": false,
          "name": "newContract",
          "type": "address"
        }
      ],
      "name": "ContractUpgrade",
      "type": "event"
    }
  ],
  "bytecode": "0x60806040526000600160146101000a81548160ff02191690831515021790555034801561002b57600080fd5b5060018060146101000a81548160ff021916908315150217905550336000806101000a81548173ffffffffffffffffffffffffffffffffffffffff021916908373ffffffffffffffffffffffffffffffffffffffff16021790555033600160006101000a81548173ffffffffffffffffffffffffffffffffffffffff021916908373ffffffffffffffffffffffffffffffffffffffff1602179055506117ef806100d66000396000f3006080604052600436106100f1576000357c0100000000000000000000000000000000000000000000000000000000900463ffffffff1680630a0f8168146100f65780631c9c088a1461014d57806327d7874c146101905780633d092b3d146101d35780633f4ba83a14610302578063466ab4531461031957806350efcdb2146103e457806356022d15146104225780635c975abb146104535780635d799306146104825780635fd8c710146104d95780636af04a57146104f05780637dfb6626146105475780638456cb59146105785780638ef541e01461058f578063be1c766b146105bf578063f6c1acdf146105ea575b600080fd5b34801561010257600080fd5b5061010b61066f565b604051808273ffffffffffffffffffffffffffffffffffffffff1673ffffffffffffffffffffffffffffffffffffffff16815260200191505060405180910390f35b34801561015957600080fd5b5061018e600480360381019080803573ffffffffffffffffffffffffffffffffffffffff169060200190929190505050610694565b005b34801561019c57600080fd5b506101d1600480360381019080803573ffffffffffffffffffffffffffffffffffffffff169060200190929190505050610770565b005b3480156101df57600080fd5b506101fe6004803603810190808035906020019092919050505061084a565b6040518080602001806020018660001916600019168152602001858152602001848152602001838103835288818151815260200191508051906020019080838360005b8381101561025c578082015181840152602081019050610241565b50505050905090810190601f1680156102895780820380516001836020036101000a031916815260200191505b50838103825287818151815260200191508051906020019080838360005b838110156102c25780820151818401526020810190506102a7565b50505050905090810190601f1680156102ef5780820380516001836020036101000a031916815260200191505b5097505050505050505060405180910390f35b34801561030e57600080fd5b506103176109d5565b005b34801561032557600080fd5b506103c6600480360381019080803590602001908201803590602001908080601f0160208091040260200160405190810160405280939291908181526020018383808284378201915050505050509192919290803590602001908201803590602001908080601f0160208091040260200160405190810160405280939291908181526020018383808284378201915050505050509192919290505050610a68565b60405180826000191660001916815260200191505060405180910390f35b3480156103f057600080fd5b506104206004803603810190808035600019169060200190929190803560ff169060200190929190505050610cd7565b005b34801561042e57600080fd5b506104516004803603810190808035600019169060200190929190505050610dfb565b005b34801561045f57600080fd5b50610468610f21565b604051808215151515815260200191505060405180910390f35b34801561048e57600080fd5b50610497610f34565b604051808273ffffffffffffffffffffffffffffffffffffffff1673ffffffffffffffffffffffffffffffffffffffff16815260200191505060405180910390f35b3480156104e557600080fd5b506104ee610f5a565b005b3480156104fc57600080fd5b50610505611036565b604051808273ffffffffffffffffffffffffffffffffffffffff1673ffffffffffffffffffffffffffffffffffffffff16815260200191505060405180910390f35b34801561055357600080fd5b50610576600480360381019080803560001916906020019092919050505061105c565b005b34801561058457600080fd5b5061058d611377565b005b6105bd600480360381019080803560001916906020019092919080351515906020019092919050505061140a565b005b3480156105cb57600080fd5b506105d46115ee565b6040518082815260200191505060405180910390f35b3480156105f657600080fd5b50610651600480360381019080803590602001908201803590602001908080601f01602080910402602001604051908101604052809392919081815260200183838082843782019150505050505091929192905050506115fb565b60405180826000191660001916815260200191505060405180910390f35b6000809054906101000a900473ffffffffffffffffffffffffffffffffffffffff1681565b600160009054906101000a900473ffffffffffffffffffffffffffffffffffffffff1673ffffffffffffffffffffffffffffffffffffffff163373ffffffffffffffffffffffffffffffffffffffff161415156106f057600080fd5b600073ffffffffffffffffffffffffffffffffffffffff168173ffffffffffffffffffffffffffffffffffffffff161415151561072c57600080fd5b80600160006101000a81548173ffffffffffffffffffffffffffffffffffffffff021916908373ffffffffffffffffffffffffffffffffffffffff16021790555050565b6000809054906101000a900473ffffffffffffffffffffffffffffffffffffffff1673ffffffffffffffffffffffffffffffffffffffff163373ffffffffffffffffffffffffffffffffffffffff161415156107cb57600080fd5b600073ffffffffffffffffffffffffffffffffffffffff168173ffffffffffffffffffffffffffffffffffffffff161415151561080757600080fd5b806000806101000a81548173ffffffffffffffffffffffffffffffffffffffff021916908373ffffffffffffffffffffffffffffffffffffffff16021790555050565b60608060008060008060038781548110151561086257fe5b906000526020600020906009020190508060020181600101826000015483600301548460040154848054600181600116156101000203166002900480601f01602080910402602001604051908101604052809291908181526020018280546001816001161561010002031660029004801561091e5780601f106108f35761010080835404028352916020019161091e565b820191906000526020600020905b81548152906001019060200180831161090157829003601f168201915b50505050509450838054600181600116156101000203166002900480601f0160208091040260200160405190810160405280929190818152602001828054600181600116156101000203166002900480156109ba5780601f1061098f576101008083540402835291602001916109ba565b820191906000526020600020905b81548152906001019060200180831161099d57829003601f168201915b50505050509350955095509550955095505091939590929450565b6000809054906101000a900473ffffffffffffffffffffffffffffffffffffffff1673ffffffffffffffffffffffffffffffffffffffff163373ffffffffffffffffffffffffffffffffffffffff16141515610a3057600080fd5b600160149054906101000a900460ff161515610a4b57600080fd5b6000600160146101000a81548160ff021916908315150217905550565b6000610a726116d0565b60008060009054906101000a900473ffffffffffffffffffffffffffffffffffffffff1673ffffffffffffffffffffffffffffffffffffffff163373ffffffffffffffffffffffffffffffffffffffff16141515610acf57600080fd5b600160149054906101000a900460ff16151515610aeb57600080fd5b61010060405190810160405280600242604051808281526020019150506020604051808303816000865af1158015610b27573d6000803e3d6000fd5b5050506040513d6020811015610b3c57600080fd5b81019080805190602001909291905050506000191681526020018681526020018581526020016000815260200160008152602001600115158152602001601460ff16815260200160028152509150600160038390806001815401808255809150509060018203906000526020600020906009020160009091929091909150600082015181600001906000191690556020820151816001019080519060200190610be692919061171e565b506040820151816002019080519060200190610c0392919061171e565b50606082015181600301556080820151816004015560a08201518160070160006101000a81548160ff02191690831515021790555060c08201518160070160016101000a81548160ff021916908360ff16021790555060e0820151816008015550500390508060026000846000015160001916600019168152602001908152602001600020819055507f9f88e75efd248809da057a850607202572b49188500b34e438c1884af6b17435826000015160405180826000191660001916815260200191505060405180910390a1505092915050565b6000806000809054906101000a900473ffffffffffffffffffffffffffffffffffffffff1673ffffffffffffffffffffffffffffffffffffffff163373ffffffffffffffffffffffffffffffffffffffff16141515610d3557600080fd5b600160149054906101000a900460ff16151515610d5157600080fd5b610d5a846116a6565b9150600382815481101515610d6b57fe5b90600052602060002090600902019050600015158160070160009054906101000a900460ff161515141515610d9c57fe5b8260ff1681600801819055507fea8ea0d25c20e9a805057bc82c595929a741d114709f74e467893892d14ba66d84846040518083600019166000191681526020018260ff1660ff1681526020019250505060405180910390a150505050565b6000806000809054906101000a900473ffffffffffffffffffffffffffffffffffffffff1673ffffffffffffffffffffffffffffffffffffffff163373ffffffffffffffffffffffffffffffffffffffff16141515610e5957600080fd5b600160149054906101000a900460ff16151515610e7557600080fd5b610e7e836116a6565b9150600382815481101515610e8f57fe5b90600052602060002090600902019050600115158160070160009054906101000a900460ff161515141515610ec057fe5b60008160070160006101000a81548160ff0219169083151502179055507fcea978e6c38ee40d0faa8e6fcded6f4f353851fd8f6e79314b42835546201b798360405180826000191660001916815260200191505060405180910390a1505050565b600160149054906101000a900460ff1681565b600160009054906101000a900473ffffffffffffffffffffffffffffffffffffffff1681565b6000809054906101000a900473ffffffffffffffffffffffffffffffffffffffff1673ffffffffffffffffffffffffffffffffffffffff163373ffffffffffffffffffffffffffffffffffffffff16141515610fb557600080fd5b6000809054906101000a900473ffffffffffffffffffffffffffffffffffffffff1673ffffffffffffffffffffffffffffffffffffffff166108fc3073ffffffffffffffffffffffffffffffffffffffff16319081150290604051600060405180830381858888f19350505050158015611033573d6000803e3d6000fd5b50565b600460009054906101000a900473ffffffffffffffffffffffffffffffffffffffff1681565b600080600080600160149054906101000a900460ff1615151561107e57600080fd5b611087856116a6565b935060038481548110151561109857fe5b906000526020600020906009020192506000915060008360080154141561120e5760008360050160003373ffffffffffffffffffffffffffffffffffffffff1673ffffffffffffffffffffffffffffffffffffffff168152602001908152602001600020541415151561110a57600080fd5b8260070160019054906101000a900460ff1660ff168360040154029050808360050160003373ffffffffffffffffffffffffffffffffffffffff1673ffffffffffffffffffffffffffffffffffffffff1681526020019081526020016000205402915082600301548281151561117c57fe5b04915060008360050160003373ffffffffffffffffffffffffffffffffffffffff1673ffffffffffffffffffffffffffffffffffffffff168152602001908152602001600020819055503373ffffffffffffffffffffffffffffffffffffffff166108fc839081150290604051600060405180830381858888f1935050505015801561120c573d6000803e3d6000fd5b505b6001836008015414156113705760008360060160003373ffffffffffffffffffffffffffffffffffffffff1673ffffffffffffffffffffffffffffffffffffffff168152602001908152602001600020541415151561126c57600080fd5b8260070160019054906101000a900460ff1660ff168360030154029050808360060160003373ffffffffffffffffffffffffffffffffffffffff1673ffffffffffffffffffffffffffffffffffffffff168152602001908152602001600020540291508260040154828115156112de57fe5b04915060008360060160003373ffffffffffffffffffffffffffffffffffffffff1673ffffffffffffffffffffffffffffffffffffffff168152602001908152602001600020819055503373ffffffffffffffffffffffffffffffffffffffff166108fc839081150290604051600060405180830381858888f1935050505015801561136e573d6000803e3d6000fd5b505b5050505050565b6000809054906101000a900473ffffffffffffffffffffffffffffffffffffffff1673ffffffffffffffffffffffffffffffffffffffff163373ffffffffffffffffffffffffffffffffffffffff161415156113d257600080fd5b600160149054906101000a900460ff161515156113ee57600080fd5b60018060146101000a81548160ff021916908315150217905550565b6000806000803411151561141d57600080fd5b611426856116a6565b925060038381548110151561143757fe5b90600052602060002090600902019150600115158260070160009054906101000a900460ff16151514151561146857fe5b6001151584151514156115035781600301549050803482011015151561148d57600080fd5b8082600301541015151561149d57fe5b348260050160003373ffffffffffffffffffffffffffffffffffffffff1673ffffffffffffffffffffffffffffffffffffffff1681526020019081526020016000206000828254019250508190555034826003016000828254019250508190555061158d565b81600401549050803482011015151561151b57600080fd5b8082600401541015151561152b57fe5b348260060160003373ffffffffffffffffffffffffffffffffffffffff1673ffffffffffffffffffffffffffffffffffffffff168152602001908152602001600020600082825401925050819055503482600401600082825401925050819055505b3373ffffffffffffffffffffffffffffffffffffffff167f1b38a56bd7d8dadb187b26b17babdbceae24d5afbb964299b18584c0ac6006e5853460405180831515151581526020018281526020019250505060405180910390a25050505050565b6000600380549050905090565b60006002826040518082805190602001908083835b6020831015156116355780518252602082019150602081019050602083039250611610565b6001836020036101000a0380198251168184511680821785525050505050509050019150506020604051808303816000865af1158015611679573d6000803e3d6000fd5b5050506040513d602081101561168e57600080fd5b81019080805190602001909291905050509050919050565b60008060026000846000191660001916815260200190815260200160002054905080915050919050565b610100604051908101604052806000801916815260200160608152602001606081526020016000815260200160008152602001600015158152602001600060ff168152602001600081525090565b828054600181600116156101000203166002900490600052602060002090601f016020900481019282601f1061175f57805160ff191683800117855561178d565b8280016001018555821561178d579182015b8281111561178c578251825591602001919060010190611771565b5b50905061179a919061179e565b5090565b6117c091905b808211156117bc5760008160009055506001016117a4565b5090565b905600a165627a7a723058200f2bf6108b74b677caf2c044ea8d26d7c781bf78f4a8e45e06fe7dfb7de8b2460029",
  "source": "pragma solidity ^0.4.24;\n\n\nimport \"./BetsBase.sol\";\n\ncontract BetsCore is BetsBase{\n\n    //Set in case the core contract is broken and an upgrade is required\n    address public newContractAddress;\n\n    // Create the main Bet smart contract instance\n    function BetsCore() public {\n        paused = true;\n        ceoAddress = msg.sender;\n        arbiterAddress = msg.sender;\n        // Starts paused\n   //     paused = true;\n        \n        // the creator of the contract is the initial CEO\n     //   ceoAddress = msg.sender;\n\n        // the creator of the contract is also the initial arbiter\n       // arbiterAddress = msg.sender;\n\n    }\n\n//    function setNewAddress(address _v2Address) public onlyCEO whenPaused {\n //       newContractAddress = _v2Address;\n  //      ContractUpgrade(_v2Address);\n   // }\n\n    // Reject all ether from being sent here, unless it's from one of\n    // the two bet contracts\n //   function() external payable {\n   //     require(\n     //       msg.sender == address(BetsBase)\n       // );\n   // }\n\n\n\n\n}\n\n",
  "sourcePath": "/Users/jvpsousa/repositories/bitkup/contracts/BetsCore.sol",
  "compiler": {
    "name": "solc",
    "version": "0.4.24+commit.e67f0147.Emscripten.clang"
  },
  "schemaVersion": "2.0.0",
  "updatedAt": "2018-06-03T01:32:28.171Z"
}