{
  "contractName": "BetsBase",
  "abi": [
    {
      "constant": true,
      "inputs": [],
      "name": "ceoAddress",
      "outputs": [
        {
          "name": "",
          "type": "address"
        }
      ],
      "payable": false,
      "stateMutability": "view",
      "type": "function"
    },
    {
      "constant": false,
      "inputs": [
        {
          "name": "_newArbiter",
          "type": "address"
        }
      ],
      "name": "setArbiter",
      "outputs": [],
      "payable": false,
      "stateMutability": "nonpayable",
      "type": "function"
    },
    {
      "constant": false,
      "inputs": [
        {
          "name": "_newCEO",
          "type": "address"
        }
      ],
      "name": "setCEO",
      "outputs": [],
      "payable": false,
      "stateMutability": "nonpayable",
      "type": "function"
    },
    {
      "constant": false,
      "inputs": [],
      "name": "unpause",
      "outputs": [],
      "payable": false,
      "stateMutability": "nonpayable",
      "type": "function"
    },
    {
      "constant": true,
      "inputs": [],
      "name": "paused",
      "outputs": [
        {
          "name": "",
          "type": "bool"
        }
      ],
      "payable": false,
      "stateMutability": "view",
      "type": "function"
    },
    {
      "constant": true,
      "inputs": [],
      "name": "arbiterAddress",
      "outputs": [
        {
          "name": "",
          "type": "address"
        }
      ],
      "payable": false,
      "stateMutability": "view",
      "type": "function"
    },
    {
      "constant": false,
      "inputs": [],
      "name": "withdrawBalance",
      "outputs": [],
      "payable": false,
      "stateMutability": "nonpayable",
      "type": "function"
    },
    {
      "constant": false,
      "inputs": [],
      "name": "pause",
      "outputs": [],
      "payable": false,
      "stateMutability": "nonpayable",
      "type": "function"
    },
    {
      "payable": true,
      "stateMutability": "payable",
      "type": "fallback"
    },
    {
      "anonymous": false,
      "inputs": [
        {
          "indexed": false,
          "name": "team0",
          "type": "bool"
        },
        {
          "indexed": true,
          "name": "from",
          "type": "address"
        },
        {
          "indexed": false,
          "name": "amount",
          "type": "uint256"
        }
      ],
      "name": "NewBet",
      "type": "event"
    },
    {
      "anonymous": false,
      "inputs": [
        {
          "indexed": false,
          "name": "match_id",
          "type": "bytes32"
        }
      ],
      "name": "MatchCreation",
      "type": "event"
    },
    {
      "anonymous": false,
      "inputs": [
        {
          "indexed": false,
          "name": "match_id",
          "type": "bytes32"
        }
      ],
      "name": "BetsEnd",
      "type": "event"
    },
    {
      "anonymous": false,
      "inputs": [
        {
          "indexed": false,
          "name": "match_id",
          "type": "bytes32"
        },
        {
          "indexed": false,
          "name": "won",
          "type": "uint8"
        }
      ],
      "name": "MatchResolved",
      "type": "event"
    },
    {
      "anonymous": false,
      "inputs": [
        {
          "indexed": false,
          "name": "newContract",
          "type": "address"
        }
      ],
      "name": "ContractUpgrade",
      "type": "event"
    },
    {
      "constant": false,
      "inputs": [
        {
          "name": "_team0Name",
          "type": "string"
        },
        {
          "name": "_team1Name",
          "type": "string"
        }
      ],
      "name": "Create_Match",
      "outputs": [],
      "payable": false,
      "stateMutability": "nonpayable",
      "type": "function"
    },
    {
      "constant": true,
      "inputs": [
        {
          "name": "_index",
          "type": "uint256"
        }
      ],
      "name": "getMatch",
      "outputs": [
        {
          "name": "_team1Name",
          "type": "string"
        },
        {
          "name": "_team0Name",
          "type": "string"
        },
        {
          "name": "_matchId",
          "type": "bytes32"
        },
        {
          "name": "_team0BetSum",
          "type": "uint256"
        },
        {
          "name": "_tem1BetSum",
          "type": "uint256"
        },
        {
          "name": "_state",
          "type": "bool"
        },
        {
          "name": "_won",
          "type": "uint256"
        }
      ],
      "payable": false,
      "stateMutability": "view",
      "type": "function"
    },
    {
      "constant": true,
      "inputs": [],
      "name": "getLength",
      "outputs": [
        {
          "name": "",
          "type": "uint256"
        }
      ],
      "payable": false,
      "stateMutability": "view",
      "type": "function"
    },
    {
      "constant": false,
      "inputs": [
        {
          "name": "_matchid",
          "type": "bytes32"
        },
        {
          "name": "team0",
          "type": "bool"
        }
      ],
      "name": "makeBet",
      "outputs": [],
      "payable": true,
      "stateMutability": "payable",
      "type": "function"
    },
    {
      "constant": true,
      "inputs": [
        {
          "name": "_match_id",
          "type": "bytes32"
        }
      ],
      "name": "getBetsBalance",
      "outputs": [
        {
          "name": "",
          "type": "uint256"
        },
        {
          "name": "",
          "type": "uint256"
        }
      ],
      "payable": false,
      "stateMutability": "view",
      "type": "function"
    },
    {
      "constant": true,
      "inputs": [
        {
          "name": "_match_id",
          "type": "bytes32"
        }
      ],
      "name": "getsMultiplier",
      "outputs": [
        {
          "name": "",
          "type": "uint256"
        },
        {
          "name": "",
          "type": "uint256"
        }
      ],
      "payable": false,
      "stateMutability": "view",
      "type": "function"
    },
    {
      "constant": false,
      "inputs": [
        {
          "name": "_matchid",
          "type": "bytes32"
        }
      ],
      "name": "endBetsInMatch",
      "outputs": [],
      "payable": false,
      "stateMutability": "nonpayable",
      "type": "function"
    },
    {
      "constant": false,
      "inputs": [
        {
          "name": "_matchid",
          "type": "bytes32"
        },
        {
          "name": "_won",
          "type": "uint8"
        }
      ],
      "name": "endMatch",
      "outputs": [],
      "payable": false,
      "stateMutability": "nonpayable",
      "type": "function"
    },
    {
      "constant": false,
      "inputs": [
        {
          "name": "_matchid",
          "type": "bytes32"
        }
      ],
      "name": "withdrawRewards",
      "outputs": [],
      "payable": false,
      "stateMutability": "nonpayable",
      "type": "function"
    },
    {
      "constant": false,
      "inputs": [],
      "name": "kill",
      "outputs": [],
      "payable": false,
      "stateMutability": "nonpayable",
      "type": "function"
    }
  ],
  "bytecode": "0x60806040526000600160146101000a81548160ff02191690831515021790555034801561002b57600080fd5b506118e18061003b6000396000f3006080604052600436106100fc576000357c0100000000000000000000000000000000000000000000000000000000900463ffffffff1680630a0f8168146100fe5780631c9c088a14610155578063229cf55c1461019857806327d7874c146101e45780633173bba5146102275780633d092b3d146102735780633f4ba83a146103b457806341c0e1b5146103cb578063466ab453146103e257806350efcdb21461049157806356022d15146104cf5780635c975abb146105005780635d7993061461052f5780635fd8c710146105865780637dfb66261461059d5780638456cb59146105ce5780638ef541e0146105e5578063be1c766b14610615575b005b34801561010a57600080fd5b50610113610640565b604051808273ffffffffffffffffffffffffffffffffffffffff1673ffffffffffffffffffffffffffffffffffffffff16815260200191505060405180910390f35b34801561016157600080fd5b50610196600480360381019080803573ffffffffffffffffffffffffffffffffffffffff169060200190929190505050610665565b005b3480156101a457600080fd5b506101c76004803603810190808035600019169060200190929190505050610741565b604051808381526020018281526020019250505060405180910390f35b3480156101f057600080fd5b50610225600480360381019080803573ffffffffffffffffffffffffffffffffffffffff169060200190929190505050610749565b005b34801561023357600080fd5b506102566004803603810190808035600019169060200190929190505050610823565b604051808381526020018281526020019250505060405180910390f35b34801561027f57600080fd5b5061029e600480360381019080803590602001909291905050506108ed565b60405180806020018060200188600019166000191681526020018781526020018681526020018515151515815260200184815260200183810383528a818151815260200191508051906020019080838360005b8381101561030c5780820151818401526020810190506102f1565b50505050905090810190601f1680156103395780820380516001836020036101000a031916815260200191505b50838103825289818151815260200191508051906020019080838360005b83811015610372578082015181840152602081019050610357565b50505050905090810190601f16801561039f5780820380516001836020036101000a031916815260200191505b50995050505050505050505060405180910390f35b3480156103c057600080fd5b506103c9610a98565b005b3480156103d757600080fd5b506103e0610b2b565b005b3480156103ee57600080fd5b5061048f600480360381019080803590602001908201803590602001908080601f0160208091040260200160405190810160405280939291908181526020018383808284378201915050505050509192919290803590602001908201803590602001908080601f0160208091040260200160405190810160405280939291908181526020018383808284378201915050505050509192919290505050610c1b565b005b34801561049d57600080fd5b506104cd6004803603810190808035600019169060200190929190803560ff169060200190929190505050610e86565b005b3480156104db57600080fd5b506104fe6004803603810190808035600019169060200190929190505050610faa565b005b34801561050c57600080fd5b506105156110d0565b604051808215151515815260200191505060405180910390f35b34801561053b57600080fd5b506105446110e3565b604051808273ffffffffffffffffffffffffffffffffffffffff1673ffffffffffffffffffffffffffffffffffffffff16815260200191505060405180910390f35b34801561059257600080fd5b5061059b611109565b005b3480156105a957600080fd5b506105cc60048036038101908080356000191690602001909291905050506111e5565b005b3480156105da57600080fd5b506105e3611514565b005b61061360048036038101908080356000191690602001909291908035151590602001909291905050506115a7565b005b34801561062157600080fd5b5061062a61178b565b6040518082815260200191505060405180910390f35b6000809054906101000a900473ffffffffffffffffffffffffffffffffffffffff1681565b600160009054906101000a900473ffffffffffffffffffffffffffffffffffffffff1673ffffffffffffffffffffffffffffffffffffffff163373ffffffffffffffffffffffffffffffffffffffff161415156106c157600080fd5b600073ffffffffffffffffffffffffffffffffffffffff168173ffffffffffffffffffffffffffffffffffffffff16141515156106fd57600080fd5b80600160006101000a81548173ffffffffffffffffffffffffffffffffffffffff021916908373ffffffffffffffffffffffffffffffffffffffff16021790555050565b600080915091565b6000809054906101000a900473ffffffffffffffffffffffffffffffffffffffff1673ffffffffffffffffffffffffffffffffffffffff163373ffffffffffffffffffffffffffffffffffffffff161415156107a457600080fd5b600073ffffffffffffffffffffffffffffffffffffffff168173ffffffffffffffffffffffffffffffffffffffff16141515156107e057600080fd5b806000806101000a81548173ffffffffffffffffffffffffffffffffffffffff021916908373ffffffffffffffffffffffffffffffffffffffff16021790555050565b60008060008060008061083587611798565b935060038481548110151561084657fe5b906000526020600020906009020192508260050160003373ffffffffffffffffffffffffffffffffffffffff1673ffffffffffffffffffffffffffffffffffffffff1681526020019081526020016000205491508260060160003373ffffffffffffffffffffffffffffffffffffffff1673ffffffffffffffffffffffffffffffffffffffff16815260200190815260200160002054905081819550955050505050915091565b60608060008060008060008060038981548110151561090857fe5b9060005260206000209060090201905080600201816001018260000154836003015484600401548560070160009054906101000a900460ff168660080154868054600181600116156101000203166002900480601f0160208091040260200160405190810160405280929190818152602001828054600181600116156101000203166002900480156109db5780601f106109b0576101008083540402835291602001916109db565b820191906000526020600020905b8154815290600101906020018083116109be57829003601f168201915b50505050509650858054600181600116156101000203166002900480601f016020809104026020016040519081016040528092919081815260200182805460018160011615610100020316600290048015610a775780601f10610a4c57610100808354040283529160200191610a77565b820191906000526020600020905b815481529060010190602001808311610a5a57829003601f168201915b50505050509550975097509750975097509750975050919395979092949650565b6000809054906101000a900473ffffffffffffffffffffffffffffffffffffffff1673ffffffffffffffffffffffffffffffffffffffff163373ffffffffffffffffffffffffffffffffffffffff16141515610af357600080fd5b600160149054906101000a900460ff161515610b0e57600080fd5b6000600160146101000a81548160ff021916908315150217905550565b6000809054906101000a900473ffffffffffffffffffffffffffffffffffffffff1673ffffffffffffffffffffffffffffffffffffffff163373ffffffffffffffffffffffffffffffffffffffff16141515610b8657600080fd5b6000809054906101000a900473ffffffffffffffffffffffffffffffffffffffff1673ffffffffffffffffffffffffffffffffffffffff163373ffffffffffffffffffffffffffffffffffffffff16141515610be157600080fd5b6000809054906101000a900473ffffffffffffffffffffffffffffffffffffffff1673ffffffffffffffffffffffffffffffffffffffff16ff5b610c236117c2565b60008060009054906101000a900473ffffffffffffffffffffffffffffffffffffffff1673ffffffffffffffffffffffffffffffffffffffff163373ffffffffffffffffffffffffffffffffffffffff16141515610c8057600080fd5b600160149054906101000a900460ff16151515610c9c57600080fd5b61010060405190810160405280600242604051808281526020019150506020604051808303816000865af1158015610cd8573d6000803e3d6000fd5b5050506040513d6020811015610ced57600080fd5b81019080805190602001909291905050506000191681526020018581526020018481526020016000815260200160008152602001600115158152602001601460ff16815260200160028152509150600160038390806001815401808255809150509060018203906000526020600020906009020160009091929091909150600082015181600001906000191690556020820151816001019080519060200190610d97929190611810565b506040820151816002019080519060200190610db4929190611810565b50606082015181600301556080820151816004015560a08201518160070160006101000a81548160ff02191690831515021790555060c08201518160070160016101000a81548160ff021916908360ff16021790555060e0820151816008015550500390508060026000846000015160001916600019168152602001908152602001600020819055507f9f88e75efd248809da057a850607202572b49188500b34e438c1884af6b17435826000015160405180826000191660001916815260200191505060405180910390a150505050565b6000806000809054906101000a900473ffffffffffffffffffffffffffffffffffffffff1673ffffffffffffffffffffffffffffffffffffffff163373ffffffffffffffffffffffffffffffffffffffff16141515610ee457600080fd5b600160149054906101000a900460ff16151515610f0057600080fd5b610f0984611798565b9150600382815481101515610f1a57fe5b90600052602060002090600902019050600015158160070160009054906101000a900460ff161515141515610f4b57fe5b8260ff1681600801819055507fea8ea0d25c20e9a805057bc82c595929a741d114709f74e467893892d14ba66d84846040518083600019166000191681526020018260ff1660ff1681526020019250505060405180910390a150505050565b6000806000809054906101000a900473ffffffffffffffffffffffffffffffffffffffff1673ffffffffffffffffffffffffffffffffffffffff163373ffffffffffffffffffffffffffffffffffffffff1614151561100857600080fd5b600160149054906101000a900460ff1615151561102457600080fd5b61102d83611798565b915060038281548110151561103e57fe5b90600052602060002090600902019050600115158160070160009054906101000a900460ff16151514151561106f57fe5b60008160070160006101000a81548160ff0219169083151502179055507fcea978e6c38ee40d0faa8e6fcded6f4f353851fd8f6e79314b42835546201b798360405180826000191660001916815260200191505060405180910390a1505050565b600160149054906101000a900460ff1681565b600160009054906101000a900473ffffffffffffffffffffffffffffffffffffffff1681565b6000809054906101000a900473ffffffffffffffffffffffffffffffffffffffff1673ffffffffffffffffffffffffffffffffffffffff163373ffffffffffffffffffffffffffffffffffffffff1614151561116457600080fd5b6000809054906101000a900473ffffffffffffffffffffffffffffffffffffffff1673ffffffffffffffffffffffffffffffffffffffff166108fc3073ffffffffffffffffffffffffffffffffffffffff16319081150290604051600060405180830381858888f193505050501580156111e2573d6000803e3d6000fd5b50565b600080600080600160149054906101000a900460ff1615151561120757600080fd5b61121085611798565b935060038481548110151561122157fe5b9060005260206000209060090201925060009150600283600801541415151561124957600080fd5b6000836008015414156113ab5760008360050160003373ffffffffffffffffffffffffffffffffffffffff1673ffffffffffffffffffffffffffffffffffffffff16815260200190815260200160002054141515156112a757600080fd5b8260070160019054906101000a900460ff1660ff168360040154029050808360050160003373ffffffffffffffffffffffffffffffffffffffff1673ffffffffffffffffffffffffffffffffffffffff1681526020019081526020016000205402915082600301548281151561131957fe5b04915060008360050160003373ffffffffffffffffffffffffffffffffffffffff1673ffffffffffffffffffffffffffffffffffffffff168152602001908152602001600020819055503373ffffffffffffffffffffffffffffffffffffffff166108fc839081150290604051600060405180830381858888f193505050501580156113a9573d6000803e3d6000fd5b505b60018360080154141561150d5760008360060160003373ffffffffffffffffffffffffffffffffffffffff1673ffffffffffffffffffffffffffffffffffffffff168152602001908152602001600020541415151561140957600080fd5b8260070160019054906101000a900460ff1660ff168360030154029050808360060160003373ffffffffffffffffffffffffffffffffffffffff1673ffffffffffffffffffffffffffffffffffffffff1681526020019081526020016000205402915082600401548281151561147b57fe5b04915060008360060160003373ffffffffffffffffffffffffffffffffffffffff1673ffffffffffffffffffffffffffffffffffffffff168152602001908152602001600020819055503373ffffffffffffffffffffffffffffffffffffffff166108fc839081150290604051600060405180830381858888f1935050505015801561150b573d6000803e3d6000fd5b505b5050505050565b6000809054906101000a900473ffffffffffffffffffffffffffffffffffffffff1673ffffffffffffffffffffffffffffffffffffffff163373ffffffffffffffffffffffffffffffffffffffff1614151561156f57600080fd5b600160149054906101000a900460ff1615151561158b57600080fd5b60018060146101000a81548160ff021916908315150217905550565b600080600080341115156115ba57600080fd5b6115c385611798565b92506003838154811015156115d457fe5b90600052602060002090600902019150600115158260070160009054906101000a900460ff16151514151561160557fe5b6001151584151514156116a05781600301549050803482011015151561162a57600080fd5b8082600301541015151561163a57fe5b348260050160003373ffffffffffffffffffffffffffffffffffffffff1673ffffffffffffffffffffffffffffffffffffffff1681526020019081526020016000206000828254019250508190555034826003016000828254019250508190555061172a565b8160040154905080348201101515156116b857600080fd5b808260040154101515156116c857fe5b348260060160003373ffffffffffffffffffffffffffffffffffffffff1673ffffffffffffffffffffffffffffffffffffffff168152602001908152602001600020600082825401925050819055503482600401600082825401925050819055505b3373ffffffffffffffffffffffffffffffffffffffff167f1b38a56bd7d8dadb187b26b17babdbceae24d5afbb964299b18584c0ac6006e5853460405180831515151581526020018281526020019250505060405180910390a25050505050565b6000600380549050905090565b60008060026000846000191660001916815260200190815260200160002054905080915050919050565b610100604051908101604052806000801916815260200160608152602001606081526020016000815260200160008152602001600015158152602001600060ff168152602001600081525090565b828054600181600116156101000203166002900490600052602060002090601f016020900481019282601f1061185157805160ff191683800117855561187f565b8280016001018555821561187f579182015b8281111561187e578251825591602001919060010190611863565b5b50905061188c9190611890565b5090565b6118b291905b808211156118ae576000816000905550600101611896565b5090565b905600a165627a7a72305820a54c885ace0d699ee5b00403020df4ce74f776e8441fcdc6c8f56058680521070029",
  "source": "pragma solidity ^0.4.24;\n\nimport \"./BetsAccessControl.sol\";\n\ncontract BetsBase is BetsAccessControl{\n    \n    event NewBet(bool team0, address indexed from, uint amount);\n    \n    event MatchCreation(bytes32 match_id);\n\n    event BetsEnd(bytes32 match_id);\n\n    event MatchResolved(bytes32 match_id, uint8 won);\n\n    // The main match struct, every match in bitkup is represented by a copy\n    // of this structure \n    struct Match {\n        //match unique ID\n        bytes32 match_id;\n\n        string team0Name;\n        string team1Name;\n        // array of bet sum on each team\n        uint team0BetSum;\n        uint team1BetSum;\n        // array of bet sum per address on each team\n        mapping (address => uint) betsToTeam0;\n        mapping (address => uint) betsToTeam1;\n        // True if accepts new bets\n        bool state;\n        uint8 TAX;\n        // 1 Team1, 0 Team0, 2 Not Ended\n        uint256 won;\n    \n    }\n\n    mapping (bytes32 => uint256) Matches_Index;\n\n    Match[] matches;\n\n    function Create_Match(string _team0Name, string _team1Name) onlyCEO whenNotPaused {\n        Match memory _match = Match({\n            match_id: sha256(block.timestamp),\n            team0Name: _team0Name,\n            team1Name: _team1Name,\n            team0BetSum: 0,\n            team1BetSum: 0,\n            state: true,\n            TAX: 20,\n            won: 2\n        });\n        uint256 newMatchIndex = matches.push(_match) - 1;\n        Matches_Index[_match.match_id] = newMatchIndex;\n        MatchCreation(_match.match_id);\n    }\n\n\n\n    function getMatch(uint _index) public view returns (string _team1Name, string _team0Name, bytes32 _matchId, uint _team0BetSum, uint _tem1BetSum, bool _state, uint _won) {\n        Match storage _match = matches[_index];\n        return (_match.team1Name, _match.team0Name, _match.match_id, _match.team0BetSum, _match.team1BetSum, _match.state, _match.won);\n    \n    }\n\n    function getLength() public view returns (uint){\n        return (matches.length);\n\n    }\n\n    function getIndexById(bytes32 _matchid) view internal returns (uint256) {\n        uint256 Match_Index = Matches_Index[_matchid];\n        return (Match_Index);\n\n    }\n\n\n    function makeBet(bytes32 _matchid, bool team0) payable external {\n        require(msg.value > 0);\n        uint256 _match_index = getIndexById(_matchid);\n        Match storage _match = matches[_match_index];\n        assert(_match.state == true);\n        uint prevSum;\n        if (team0 == true) {\n            prevSum = _match.team0BetSum;\n            require((prevSum + msg.value) >= prevSum);\n            assert(_match.team0BetSum >= prevSum);\n            _match.betsToTeam0[msg.sender] += msg.value;\n            _match.team0BetSum += msg.value;\n        }\n        else {\n            prevSum = _match.team1BetSum;\n            require((prevSum + msg.value) >= prevSum);\n            assert(_match.team1BetSum >= prevSum);\n            _match.betsToTeam1[msg.sender] += msg.value;\n            _match.team1BetSum += msg.value;\n        }\n        NewBet(team0, msg.sender, msg.value);\n\n        \n\n    }\n\n    function getBetsBalance(bytes32 _match_id) public view returns(uint256, uint256) {\n        uint256 _match_index = getIndexById(_match_id);\n        Match storage _match = matches[_match_index];\n        uint balance0 = _match.betsToTeam0[msg.sender];\n        uint balance1 = _match.betsToTeam1[msg.sender];\n        return (balance0, balance1);\n    }\n\n    function getsMultiplier(bytes32 _match_id) public view returns(uint256, uint256){\n\n    }\n\n\n    function endBetsInMatch(bytes32 _matchid) onlyCEO whenNotPaused external {\n        uint256 _match_index = getIndexById(_matchid);\n        Match storage _match = matches[_match_index];\n        assert(_match.state == true);\n        _match.state = false;\n        BetsEnd(_matchid);\n    }\n    \n    function endMatch(bytes32 _matchid, uint8 _won) onlyCEO whenNotPaused external {\n        uint256 _match_index = getIndexById(_matchid);\n        Match storage _match = matches[_match_index];\n        assert(_match.state == false);\n        _match.won = _won;\n        MatchResolved(_matchid, _won);\n    }\n    \n    function withdrawRewards(bytes32 _matchid) whenNotPaused external {\n        uint256 _match_index = getIndexById(_matchid);\n        Match storage _match = matches[_match_index];\n        uint x = 0;\n        uint teamLoserSumMinusTaxes;\n        require(_match.won != 2);\n        if (_match.won == 0){\n            require(_match.betsToTeam0[msg.sender] != 0);\n            teamLoserSumMinusTaxes = _match.team1BetSum * _match.TAX;\n            x = _match.betsToTeam0[msg.sender] * teamLoserSumMinusTaxes;\n            x = x / _match.team0BetSum;\n            _match.betsToTeam0[msg.sender] = 0;\n            msg.sender.transfer(x);\n        }\n        if (_match.won == 1) {\n            require(_match.betsToTeam1[msg.sender] != 0);\n            teamLoserSumMinusTaxes = _match.team0BetSum * _match.TAX;\n            x = _match.betsToTeam1[msg.sender] * teamLoserSumMinusTaxes;\n            x = x / _match.team1BetSum;\n            _match.betsToTeam1[msg.sender] = 0;\n            msg.sender.transfer(x);\n        }\n    }\n\n    function kill() public onlyCEO {\n        require(msg.sender == ceoAddress);\n        selfdestruct(ceoAddress);\n    }\n\n\n    function() public payable{}\n\n\n}\n\n\n",
  "sourcePath": "/Users/ferraz/trash/bitkup/contracts/BetsBase.sol",
  "compiler": {
    "name": "solc",
    "version": "0.4.24+commit.e67f0147.Emscripten.clang"
  },
  "schemaVersion": "2.0.0",
  "updatedAt": "2018-06-03T04:19:04.993Z"
}